{"abi":[{"type":"constructor","inputs":[{"name":"_token","type":"address","internalType":"address"},{"name":"_layerZeroEndpoint","type":"address","internalType":"address"},{"name":"_delegate","type":"address","internalType":"address"}],"stateMutability":"nonpayable"},{"type":"function","name":"SEND","inputs":[],"outputs":[{"name":"","type":"uint16","internalType":"uint16"}],"stateMutability":"view"},{"type":"function","name":"SEND_AND_CALL","inputs":[],"outputs":[{"name":"","type":"uint16","internalType":"uint16"}],"stateMutability":"view"},{"type":"function","name":"allowInitializePath","inputs":[{"name":"origin","type":"tuple","internalType":"struct Origin","components":[{"name":"srcEid","type":"uint32","internalType":"uint32"},{"name":"sender","type":"bytes32","internalType":"bytes32"},{"name":"nonce","type":"uint64","internalType":"uint64"}]}],"outputs":[{"name":"","type":"bool","internalType":"bool"}],"stateMutability":"view"},{"type":"function","name":"approvalRequired","inputs":[],"outputs":[{"name":"","type":"bool","internalType":"bool"}],"stateMutability":"pure"},{"type":"function","name":"combineOptions","inputs":[{"name":"_eid","type":"uint32","internalType":"uint32"},{"name":"_msgType","type":"uint16","internalType":"uint16"},{"name":"_extraOptions","type":"bytes","internalType":"bytes"}],"outputs":[{"name":"","type":"bytes","internalType":"bytes"}],"stateMutability":"view"},{"type":"function","name":"decimalConversionRate","inputs":[],"outputs":[{"name":"","type":"uint256","internalType":"uint256"}],"stateMutability":"view"},{"type":"function","name":"endpoint","inputs":[],"outputs":[{"name":"","type":"address","internalType":"contract ILayerZeroEndpointV2"}],"stateMutability":"view"},{"type":"function","name":"enforcedOptions","inputs":[{"name":"eid","type":"uint32","internalType":"uint32"},{"name":"msgType","type":"uint16","internalType":"uint16"}],"outputs":[{"name":"enforcedOption","type":"bytes","internalType":"bytes"}],"stateMutability":"view"},{"type":"function","name":"isComposeMsgSender","inputs":[{"name":"","type":"tuple","internalType":"struct Origin","components":[{"name":"srcEid","type":"uint32","internalType":"uint32"},{"name":"sender","type":"bytes32","internalType":"bytes32"},{"name":"nonce","type":"uint64","internalType":"uint64"}]},{"name":"","type":"bytes","internalType":"bytes"},{"name":"_sender","type":"address","internalType":"address"}],"outputs":[{"name":"","type":"bool","internalType":"bool"}],"stateMutability":"view"},{"type":"function","name":"isPeer","inputs":[{"name":"_eid","type":"uint32","internalType":"uint32"},{"name":"_peer","type":"bytes32","internalType":"bytes32"}],"outputs":[{"name":"","type":"bool","internalType":"bool"}],"stateMutability":"view"},{"type":"function","name":"lzReceive","inputs":[{"name":"_origin","type":"tuple","internalType":"struct Origin","components":[{"name":"srcEid","type":"uint32","internalType":"uint32"},{"name":"sender","type":"bytes32","internalType":"bytes32"},{"name":"nonce","type":"uint64","internalType":"uint64"}]},{"name":"_guid","type":"bytes32","internalType":"bytes32"},{"name":"_message","type":"bytes","internalType":"bytes"},{"name":"_executor","type":"address","internalType":"address"},{"name":"_extraData","type":"bytes","internalType":"bytes"}],"outputs":[],"stateMutability":"payable"},{"type":"function","name":"lzReceiveAndRevert","inputs":[{"name":"_packets","type":"tuple[]","internalType":"struct InboundPacket[]","components":[{"name":"origin","type":"tuple","internalType":"struct Origin","components":[{"name":"srcEid","type":"uint32","internalType":"uint32"},{"name":"sender","type":"bytes32","internalType":"bytes32"},{"name":"nonce","type":"uint64","internalType":"uint64"}]},{"name":"dstEid","type":"uint32","internalType":"uint32"},{"name":"receiver","type":"address","internalType":"address"},{"name":"guid","type":"bytes32","internalType":"bytes32"},{"name":"value","type":"uint256","internalType":"uint256"},{"name":"executor","type":"address","internalType":"address"},{"name":"message","type":"bytes","internalType":"bytes"},{"name":"extraData","type":"bytes","internalType":"bytes"}]}],"outputs":[],"stateMutability":"payable"},{"type":"function","name":"lzReceiveSimulate","inputs":[{"name":"_origin","type":"tuple","internalType":"struct Origin","components":[{"name":"srcEid","type":"uint32","internalType":"uint32"},{"name":"sender","type":"bytes32","internalType":"bytes32"},{"name":"nonce","type":"uint64","internalType":"uint64"}]},{"name":"_guid","type":"bytes32","internalType":"bytes32"},{"name":"_message","type":"bytes","internalType":"bytes"},{"name":"_executor","type":"address","internalType":"address"},{"name":"_extraData","type":"bytes","internalType":"bytes"}],"outputs":[],"stateMutability":"payable"},{"type":"function","name":"msgInspector","inputs":[],"outputs":[{"name":"","type":"address","internalType":"address"}],"stateMutability":"view"},{"type":"function","name":"nextNonce","inputs":[{"name":"","type":"uint32","internalType":"uint32"},{"name":"","type":"bytes32","internalType":"bytes32"}],"outputs":[{"name":"nonce","type":"uint64","internalType":"uint64"}],"stateMutability":"view"},{"type":"function","name":"oApp","inputs":[],"outputs":[{"name":"","type":"address","internalType":"address"}],"stateMutability":"view"},{"type":"function","name":"oAppVersion","inputs":[],"outputs":[{"name":"senderVersion","type":"uint64","internalType":"uint64"},{"name":"receiverVersion","type":"uint64","internalType":"uint64"}],"stateMutability":"pure"},{"type":"function","name":"oftVersion","inputs":[],"outputs":[{"name":"interfaceId","type":"bytes4","internalType":"bytes4"},{"name":"version","type":"uint64","internalType":"uint64"}],"stateMutability":"pure"},{"type":"function","name":"owner","inputs":[],"outputs":[{"name":"","type":"address","internalType":"address"}],"stateMutability":"view"},{"type":"function","name":"peers","inputs":[{"name":"eid","type":"uint32","internalType":"uint32"}],"outputs":[{"name":"peer","type":"bytes32","internalType":"bytes32"}],"stateMutability":"view"},{"type":"function","name":"preCrime","inputs":[],"outputs":[{"name":"","type":"address","internalType":"address"}],"stateMutability":"view"},{"type":"function","name":"quoteOFT","inputs":[{"name":"_sendParam","type":"tuple","internalType":"struct SendParam","components":[{"name":"dstEid","type":"uint32","internalType":"uint32"},{"name":"to","type":"bytes32","internalType":"bytes32"},{"name":"amountLD","type":"uint256","internalType":"uint256"},{"name":"minAmountLD","type":"uint256","internalType":"uint256"},{"name":"extraOptions","type":"bytes","internalType":"bytes"},{"name":"composeMsg","type":"bytes","internalType":"bytes"},{"name":"oftCmd","type":"bytes","internalType":"bytes"}]}],"outputs":[{"name":"oftLimit","type":"tuple","internalType":"struct OFTLimit","components":[{"name":"minAmountLD","type":"uint256","internalType":"uint256"},{"name":"maxAmountLD","type":"uint256","internalType":"uint256"}]},{"name":"oftFeeDetails","type":"tuple[]","internalType":"struct OFTFeeDetail[]","components":[{"name":"feeAmountLD","type":"int256","internalType":"int256"},{"name":"description","type":"string","internalType":"string"}]},{"name":"oftReceipt","type":"tuple","internalType":"struct OFTReceipt","components":[{"name":"amountSentLD","type":"uint256","internalType":"uint256"},{"name":"amountReceivedLD","type":"uint256","internalType":"uint256"}]}],"stateMutability":"view"},{"type":"function","name":"quoteSend","inputs":[{"name":"_sendParam","type":"tuple","internalType":"struct SendParam","components":[{"name":"dstEid","type":"uint32","internalType":"uint32"},{"name":"to","type":"bytes32","internalType":"bytes32"},{"name":"amountLD","type":"uint256","internalType":"uint256"},{"name":"minAmountLD","type":"uint256","internalType":"uint256"},{"name":"extraOptions","type":"bytes","internalType":"bytes"},{"name":"composeMsg","type":"bytes","internalType":"bytes"},{"name":"oftCmd","type":"bytes","internalType":"bytes"}]},{"name":"_payInLzToken","type":"bool","internalType":"bool"}],"outputs":[{"name":"msgFee","type":"tuple","internalType":"struct MessagingFee","components":[{"name":"nativeFee","type":"uint256","internalType":"uint256"},{"name":"lzTokenFee","type":"uint256","internalType":"uint256"}]}],"stateMutability":"view"},{"type":"function","name":"renounceOwnership","inputs":[],"outputs":[],"stateMutability":"nonpayable"},{"type":"function","name":"send","inputs":[{"name":"_sendParam","type":"tuple","internalType":"struct SendParam","components":[{"name":"dstEid","type":"uint32","internalType":"uint32"},{"name":"to","type":"bytes32","internalType":"bytes32"},{"name":"amountLD","type":"uint256","internalType":"uint256"},{"name":"minAmountLD","type":"uint256","internalType":"uint256"},{"name":"extraOptions","type":"bytes","internalType":"bytes"},{"name":"composeMsg","type":"bytes","internalType":"bytes"},{"name":"oftCmd","type":"bytes","internalType":"bytes"}]},{"name":"_fee","type":"tuple","internalType":"struct MessagingFee","components":[{"name":"nativeFee","type":"uint256","internalType":"uint256"},{"name":"lzTokenFee","type":"uint256","internalType":"uint256"}]},{"name":"_refundAddress","type":"address","internalType":"address"}],"outputs":[{"name":"msgReceipt","type":"tuple","internalType":"struct MessagingReceipt","components":[{"name":"guid","type":"bytes32","internalType":"bytes32"},{"name":"nonce","type":"uint64","internalType":"uint64"},{"name":"fee","type":"tuple","internalType":"struct MessagingFee","components":[{"name":"nativeFee","type":"uint256","internalType":"uint256"},{"name":"lzTokenFee","type":"uint256","internalType":"uint256"}]}]},{"name":"oftReceipt","type":"tuple","internalType":"struct OFTReceipt","components":[{"name":"amountSentLD","type":"uint256","internalType":"uint256"},{"name":"amountReceivedLD","type":"uint256","internalType":"uint256"}]}],"stateMutability":"payable"},{"type":"function","name":"setDelegate","inputs":[{"name":"_delegate","type":"address","internalType":"address"}],"outputs":[],"stateMutability":"nonpayable"},{"type":"function","name":"setEnforcedOptions","inputs":[{"name":"_enforcedOptions","type":"tuple[]","internalType":"struct EnforcedOptionParam[]","components":[{"name":"eid","type":"uint32","internalType":"uint32"},{"name":"msgType","type":"uint16","internalType":"uint16"},{"name":"options","type":"bytes","internalType":"bytes"}]}],"outputs":[],"stateMutability":"nonpayable"},{"type":"function","name":"setMsgInspector","inputs":[{"name":"_msgInspector","type":"address","internalType":"address"}],"outputs":[],"stateMutability":"nonpayable"},{"type":"function","name":"setPeer","inputs":[{"name":"_eid","type":"uint32","internalType":"uint32"},{"name":"_peer","type":"bytes32","internalType":"bytes32"}],"outputs":[],"stateMutability":"nonpayable"},{"type":"function","name":"setPreCrime","inputs":[{"name":"_preCrime","type":"address","internalType":"address"}],"outputs":[],"stateMutability":"nonpayable"},{"type":"function","name":"sharedDecimals","inputs":[],"outputs":[{"name":"","type":"uint8","internalType":"uint8"}],"stateMutability":"view"},{"type":"function","name":"token","inputs":[],"outputs":[{"name":"","type":"address","internalType":"address"}],"stateMutability":"view"},{"type":"function","name":"transferOwnership","inputs":[{"name":"newOwner","type":"address","internalType":"address"}],"outputs":[],"stateMutability":"nonpayable"},{"type":"event","name":"EnforcedOptionSet","inputs":[{"name":"_enforcedOptions","type":"tuple[]","indexed":false,"internalType":"struct EnforcedOptionParam[]","components":[{"name":"eid","type":"uint32","internalType":"uint32"},{"name":"msgType","type":"uint16","internalType":"uint16"},{"name":"options","type":"bytes","internalType":"bytes"}]}],"anonymous":false},{"type":"event","name":"MsgInspectorSet","inputs":[{"name":"inspector","type":"address","indexed":false,"internalType":"address"}],"anonymous":false},{"type":"event","name":"OFTReceived","inputs":[{"name":"guid","type":"bytes32","indexed":true,"internalType":"bytes32"},{"name":"srcEid","type":"uint32","indexed":false,"internalType":"uint32"},{"name":"toAddress","type":"address","indexed":true,"internalType":"address"},{"name":"amountReceivedLD","type":"uint256","indexed":false,"internalType":"uint256"}],"anonymous":false},{"type":"event","name":"OFTSent","inputs":[{"name":"guid","type":"bytes32","indexed":true,"internalType":"bytes32"},{"name":"dstEid","type":"uint32","indexed":false,"internalType":"uint32"},{"name":"fromAddress","type":"address","indexed":true,"internalType":"address"},{"name":"amountSentLD","type":"uint256","indexed":false,"internalType":"uint256"},{"name":"amountReceivedLD","type":"uint256","indexed":false,"internalType":"uint256"}],"anonymous":false},{"type":"event","name":"OwnershipTransferred","inputs":[{"name":"previousOwner","type":"address","indexed":true,"internalType":"address"},{"name":"newOwner","type":"address","indexed":true,"internalType":"address"}],"anonymous":false},{"type":"event","name":"PeerSet","inputs":[{"name":"eid","type":"uint32","indexed":false,"internalType":"uint32"},{"name":"peer","type":"bytes32","indexed":false,"internalType":"bytes32"}],"anonymous":false},{"type":"event","name":"PreCrimeSet","inputs":[{"name":"preCrimeAddress","type":"address","indexed":false,"internalType":"address"}],"anonymous":false},{"type":"error","name":"InvalidDelegate","inputs":[]},{"type":"error","name":"InvalidEndpointCall","inputs":[]},{"type":"error","name":"InvalidLocalDecimals","inputs":[]},{"type":"error","name":"InvalidOptions","inputs":[{"name":"options","type":"bytes","internalType":"bytes"}]},{"type":"error","name":"LzTokenUnavailable","inputs":[]},{"type":"error","name":"NoPeer","inputs":[{"name":"eid","type":"uint32","internalType":"uint32"}]},{"type":"error","name":"NotEnoughNative","inputs":[{"name":"msgValue","type":"uint256","internalType":"uint256"}]},{"type":"error","name":"OnlyEndpoint","inputs":[{"name":"addr","type":"address","internalType":"address"}]},{"type":"error","name":"OnlyPeer","inputs":[{"name":"eid","type":"uint32","internalType":"uint32"},{"name":"sender","type":"bytes32","internalType":"bytes32"}]},{"type":"error","name":"OnlySelf","inputs":[]},{"type":"error","name":"OwnableInvalidOwner","inputs":[{"name":"owner","type":"address","internalType":"address"}]},{"type":"error","name":"OwnableUnauthorizedAccount","inputs":[{"name":"account","type":"address","internalType":"address"}]},{"type":"error","name":"SafeERC20FailedOperation","inputs":[{"name":"token","type":"address","internalType":"address"}]},{"type":"error","name":"SimulationResult","inputs":[{"name":"result","type":"bytes","internalType":"bytes"}]},{"type":"error","name":"SlippageExceeded","inputs":[{"name":"amountLD","type":"uint256","internalType":"uint256"},{"name":"minAmountLD","type":"uint256","internalType":"uint256"}]}],"bytecode":{"object":"0x60e060405234801561001057600080fd5b50604051612e9d380380612e9d83398101604081905261002f9161023d565b828282826001600160a01b031663313ce5676040518163ffffffff1660e01b8152600401602060405180830381865afa158015610070573d6000803e3d6000fd5b505050506040513d601f19601f820116820180604052508101906100949190610280565b8282818181818a6001600160a01b0381166100c957604051631e4fbdf760e01b81526000600482015260240160405180910390fd5b6100d2816101cc565b506001600160a01b03808316608052811661010057604051632d618d8160e21b815260040160405180910390fd5b60805160405163ca5eb5e160e01b81526001600160a01b0383811660048301529091169063ca5eb5e190602401600060405180830381600087803b15801561014757600080fd5b505af115801561015b573d6000803e3d6000fd5b505050505050505061017161021c60201b60201c565b60ff168360ff161015610197576040516301e9714b60e41b815260040160405180910390fd5b6101a26006846102c0565b6101ad90600a6103c6565b60a0525050506001600160a01b0390921660c052506103d59350505050565b600080546001600160a01b038381166001600160a01b0319831681178455604051919092169283917f8be0079c531659141344cd1fd0a4f28419497f9722a3daafe3b4186f6b6457e09190a35050565b600690565b80516001600160a01b038116811461023857600080fd5b919050565b60008060006060848603121561025257600080fd5b61025b84610221565b925061026960208501610221565b915061027760408501610221565b90509250925092565b60006020828403121561029257600080fd5b815160ff811681146102a357600080fd5b9392505050565b634e487b7160e01b600052601160045260246000fd5b60ff82811682821603908111156102d9576102d96102aa565b92915050565b6001815b600184111561031a578085048111156102fe576102fe6102aa565b600184161561030c57908102905b60019390931c9280026102e3565b935093915050565b600082610331575060016102d9565b8161033e575060006102d9565b8160018114610354576002811461035e5761037a565b60019150506102d9565b60ff84111561036f5761036f6102aa565b50506001821b6102d9565b5060208310610133831016604e8410600b841016171561039d575081810a6102d9565b6103aa60001984846102df565b80600019048211156103be576103be6102aa565b029392505050565b60006102a360ff841683610322565b60805160a05160c051612a4561045860003960008181610669015281816115bf01526117b80152600081816104e2015281816116ff0152818161177b015261186b0152600081816103e40152818161078001528181610e56015281816110c30152818161135101528181611623015281816119a30152611a5c0152612a456000f3fe6080604052600436106101ee5760003560e01c806382413eac1161010d578063bc70b354116100a0578063d045a0dc1161006f578063d045a0dc14610607578063d42438851461061a578063f2fde38b1461063a578063fc0c546a1461065a578063ff7bd03d1461068d57600080fd5b8063bc70b35414610593578063bd815db0146105b3578063c7c7f5b3146105c6578063ca5eb5e1146105e757600080fd5b80639f68b964116100dc5780639f68b96414610512578063b731ea0a14610526578063b98bd07014610546578063bb0b6a531461056657600080fd5b806382413eac14610476578063857749b0146104965780638da5cb5b146104b2578063963efcaa146104d057600080fd5b80633b6f743b116101855780635e280f11116101545780635e280f11146103d25780636fc1b31e14610406578063715018a6146104265780637d25a05e1461043b57600080fd5b80633b6f743b1461031e57806352ae28791461034b5780635535d4611461035e5780635a0dfe4d1461038b57600080fd5b8063156a0d0f116101c1578063156a0d0f146102a057806317442b70146102c75780631f5e1334146102e95780633400288b146102fe57600080fd5b80630d35b415146101f3578063111ecdad1461022b57806313137d6514610263578063134d4f2514610278575b600080fd5b3480156101ff57600080fd5b5061021361020e366004611b87565b6106ad565b60405161022293929190611c0b565b60405180910390f35b34801561023757600080fd5b5060045461024b906001600160a01b031681565b6040516001600160a01b039091168152602001610222565b610276610271366004611d17565b61077e565b005b34801561028457600080fd5b5061028d600281565b60405161ffff9091168152602001610222565b3480156102ac57600080fd5b506040805162b9270b60e21b81526001602082015201610222565b3480156102d357600080fd5b5060408051600181526002602082015201610222565b3480156102f557600080fd5b5061028d600181565b34801561030a57600080fd5b50610276610319366004611dd1565b61083e565b34801561032a57600080fd5b5061033e610339366004611e09565b610854565b6040516102229190611e5a565b34801561035757600080fd5b503061024b565b34801561036a57600080fd5b5061037e610379366004611e83565b6108bd565b6040516102229190611eb6565b34801561039757600080fd5b506103c26103a6366004611dd1565b63ffffffff919091166000908152600160205260409020541490565b6040519015158152602001610222565b3480156103de57600080fd5b5061024b7f000000000000000000000000000000000000000000000000000000000000000081565b34801561041257600080fd5b50610276610421366004611ec9565b610962565b34801561043257600080fd5b506102766109bf565b34801561044757600080fd5b5061045e610456366004611dd1565b600092915050565b6040516001600160401b039091168152602001610222565b34801561048257600080fd5b506103c2610491366004611ee6565b6109d3565b3480156104a257600080fd5b5060405160068152602001610222565b3480156104be57600080fd5b506000546001600160a01b031661024b565b3480156104dc57600080fd5b506105047f000000000000000000000000000000000000000000000000000000000000000081565b604051908152602001610222565b34801561051e57600080fd5b5060016103c2565b34801561053257600080fd5b5060025461024b906001600160a01b031681565b34801561055257600080fd5b50610276610561366004611f90565b6109e8565b34801561057257600080fd5b50610504610581366004611fd1565b60016020526000908152604090205481565b34801561059f57600080fd5b5061037e6105ae366004611fec565b610a02565b6102766105c1366004611f90565b610baa565b6105d96105d436600461204c565b610d34565b6040516102229291906120b9565b3480156105f357600080fd5b50610276610602366004611ec9565b610e2f565b610276610615366004611d17565b610eb5565b34801561062657600080fd5b50610276610635366004611ec9565b610ee4565b34801561064657600080fd5b50610276610655366004611ec9565b610f3a565b34801561066657600080fd5b507f000000000000000000000000000000000000000000000000000000000000000061024b565b34801561069957600080fd5b506103c26106a836600461210b565b610f78565b604080518082019091526000808252602082015260606106e0604051806040016040528060008152602001600081525090565b60408051808201825260008082526001600160401b0360208084018290528451838152908101909452919550918261073b565b6040805180820190915260008152606060208201528152602001906001900390816107135790505b509350600080610760604089013560608a013561075b60208c018c611fd1565b610fae565b60408051808201909152918252602082015296989597505050505050565b7f00000000000000000000000000000000000000000000000000000000000000006001600160a01b031633146107ce576040516391ac5e4f60e01b81523360048201526024015b60405180910390fd5b602087018035906107e8906107e3908a611fd1565b610ff2565b14610826576107fa6020880188611fd1565b60405163309afaf360e21b815263ffffffff9091166004820152602088013560248201526044016107c5565b6108358787878787878761102e565b50505050505050565b610846611195565b61085082826111c2565b5050565b604080518082019091526000808252602082015260006108846040850135606086013561075b6020880188611fd1565b9150506000806108948684611217565b90925090506108b16108a96020880188611fd1565b83838861133b565b93505050505b92915050565b6003602090815260009283526040808420909152908252902080546108e19061213d565b80601f016020809104026020016040519081016040528092919081815260200182805461090d9061213d565b801561095a5780601f1061092f5761010080835404028352916020019161095a565b820191906000526020600020905b81548152906001019060200180831161093d57829003601f168201915b505050505081565b61096a611195565b600480546001600160a01b0319166001600160a01b0383169081179091556040519081527ff0be4f1e87349231d80c36b33f9e8639658eeaf474014dee15a3e6a4d4414197906020015b60405180910390a150565b6109c7611195565b6109d1600061141c565b565b6001600160a01b03811630145b949350505050565b6109f0611195565b6108506109fd8284612212565b61146c565b63ffffffff8416600090815260036020908152604080832061ffff87168452909152812080546060929190610a369061213d565b80601f0160208091040260200160405190810160405280929190818152602001828054610a629061213d565b8015610aaf5780601f10610a8457610100808354040283529160200191610aaf565b820191906000526020600020905b815481529060010190602001808311610a9257829003601f168201915b505050505090508051600003610aff5783838080601f0160208091040260200160405190810160405280939291908181526020018383808284376000920191909152509294506109e09350505050565b6000839003610b0f5790506109e0565b60028310610b8d57610b5684848080601f01602080910402602001604051908101604052809392919081815260200183838082843760009201919091525061157392505050565b80610b64846002818861233b565b604051602001610b7693929190612365565b6040516020818303038152906040529150506109e0565b8383604051639a6d49cd60e01b81526004016107c59291906123b6565b60005b81811015610cb35736838383818110610bc857610bc86123ca565b9050602002810190610bda91906123e0565b9050610c0d610bec6020830183611fd1565b602083013563ffffffff919091166000908152600160205260409020541490565b610c175750610cab565b3063d045a0dc60c08301358360a0810135610c36610100830183612401565b610c47610100890160e08a01611ec9565b610c556101208a018a612401565b6040518963ffffffff1660e01b8152600401610c77979695949392919061245c565b6000604051808303818588803b158015610c9057600080fd5b505af1158015610ca4573d6000803e3d6000fd5b5050505050505b600101610bad565b50336001600160a01b0316638e9e70996040518163ffffffff1660e01b8152600401600060405180830381865afa158015610cf2573d6000803e3d6000fd5b505050506040513d6000823e601f3d908101601f19168201604052610d1a91908101906124e2565b604051638351eea760e01b81526004016107c59190611eb6565b610d3c611b28565b6040805180820190915260008082526020820152600080610d7333604089013560608a0135610d6e60208c018c611fd1565b61159f565b91509150600080610d848984611217565b9092509050610db0610d9960208b018b611fd1565b8383610daa368d90038d018d61254f565b8b6115f0565b60408051808201909152858152602080820186905282519298509096503391907f85496b760a4b7f8d66384b9df21b381f5d1b1e79f229a47aaf4c232edc2fe59a90610dfe908d018d611fd1565b6040805163ffffffff909216825260208201899052810187905260600160405180910390a350505050935093915050565b610e37611195565b60405163ca5eb5e160e01b81526001600160a01b0382811660048301527f0000000000000000000000000000000000000000000000000000000000000000169063ca5eb5e190602401600060405180830381600087803b158015610e9a57600080fd5b505af1158015610eae573d6000803e3d6000fd5b5050505050565b333014610ed55760405163029a949d60e31b815260040160405180910390fd5b61083587878787878787610826565b610eec611195565b600280546001600160a01b0319166001600160a01b0383169081179091556040519081527fd48d879cef83a1c0bdda516f27b13ddb1b3f8bbac1c9e1511bb2a659c2427760906020016109b4565b610f42611195565b6001600160a01b038116610f6c57604051631e4fbdf760e01b8152600060048201526024016107c5565b610f758161141c565b50565b6000602082018035906001908390610f909086611fd1565b63ffffffff1681526020810191909152604001600020541492915050565b600080610fba856116fb565b915081905083811015610fea576040516371c4efed60e01b815260048101829052602481018590526044016107c5565b935093915050565b63ffffffff8116600090815260016020526040812054806108b75760405163f6ff4fb760e01b815263ffffffff841660048201526024016107c5565b600061104061103d8787611732565b90565b9050600061106c8261105a6110558a8a611751565b611774565b61106760208d018d611fd1565b6117a9565b905060288611156111335760006110a961108c60608c0160408d01612582565b61109960208d018d611fd1565b846110a48c8c6117e7565b611832565b604051633e5ac80960e11b81529091506001600160a01b037f00000000000000000000000000000000000000000000000000000000000000001690637cb59012906110ff9086908d90600090879060040161259f565b600060405180830381600087803b15801561111957600080fd5b505af115801561112d573d6000803e3d6000fd5b50505050505b6001600160a01b038216887fefed6d3500546b29533b128a29e3a94d70788727f0507505ac12eaf2e578fd9c61116c60208d018d611fd1565b6040805163ffffffff9092168252602082018690520160405180910390a3505050505050505050565b6000546001600160a01b031633146109d15760405163118cdaa760e01b81523360048201526024016107c5565b63ffffffff8216600081815260016020908152604091829020849055815192835282018390527f238399d427b947898edb290f5ff0f9109849b1c3ba196a42e35f00c50a54b98b910160405180910390a15050565b6060806000611274856020013561122d86611864565b61123a60a0890189612401565b8080601f01602080910402602001604051908101604052809392919081815260200183838082843760009201919091525061189092505050565b909350905060008161128757600161128a565b60025b90506112aa61129c6020880188611fd1565b826105ae60808a018a612401565b6004549093506001600160a01b031615611332576004805460405163043a78eb60e01b81526001600160a01b039091169163043a78eb916112ef9188918891016125da565b602060405180830381865afa15801561130c573d6000803e3d6000fd5b505050506040513d601f19601f8201168201806040525081019061133091906125ff565b505b50509250929050565b60408051808201909152600080825260208201527f00000000000000000000000000000000000000000000000000000000000000006001600160a01b031663ddc28c586040518060a001604052808863ffffffff16815260200161139e89610ff2565b8152602001878152602001868152602001851515815250306040518363ffffffff1660e01b81526004016113d392919061261c565b6040805180830381865afa1580156113ef573d6000803e3d6000fd5b505050506040513d601f19601f8201168201806040525081019061141391906126c6565b95945050505050565b600080546001600160a01b038381166001600160a01b0319831681178455604051919092169283917f8be0079c531659141344cd1fd0a4f28419497f9722a3daafe3b4186f6b6457e09190a35050565b60005b81518110156115435761149e82828151811061148d5761148d6123ca565b602002602001015160400151611573565b8181815181106114b0576114b06123ca565b602002602001015160400151600360008484815181106114d2576114d26123ca565b60200260200101516000015163ffffffff1663ffffffff168152602001908152602001600020600084848151811061150c5761150c6123ca565b60200260200101516020015161ffff1661ffff168152602001908152602001600020908161153a9190612729565b5060010161146f565b507fbe4864a8e820971c0247f5992e2da559595f7bf076a21cb5928d443d2a13b674816040516109b491906127e7565b600281015161ffff81166003146108505781604051639a6d49cd60e01b81526004016107c59190611eb6565b6000806115ad858585610fae565b90925090506115e76001600160a01b037f00000000000000000000000000000000000000000000000000000000000000001687308561190a565b94509492505050565b6115f8611b28565b60006116078460000151611977565b60208501519091501561162157611621846020015161199f565b7f00000000000000000000000000000000000000000000000000000000000000006001600160a01b0316632637a450826040518060a001604052808b63ffffffff1681526020016116718c610ff2565b81526020018a815260200189815260200160008960200151111515815250866040518463ffffffff1660e01b81526004016116ad92919061261c565b60806040518083038185885af11580156116cb573d6000803e3d6000fd5b50505050506040513d601f19601f820116820180604052508101906116f09190612877565b979650505050505050565b60007f000000000000000000000000000000000000000000000000000000000000000061172881846128c3565b6108b791906128e5565b6000611741602082848661233b565b61174a9161290a565b9392505050565b600061176160286020848661233b565b61176a91612928565b60c01c9392505050565b60006108b77f00000000000000000000000000000000000000000000000000000000000000006001600160401b0384166128e5565b60006117df6001600160a01b037f0000000000000000000000000000000000000000000000000000000000000000168585611a81565b509092915050565b60606117f6826028818661233b565b8080601f016020809104026020016040519081016040528093929190818152602001838380828437600092019190915250929695505050505050565b60608484848460405160200161184b9493929190612960565b6040516020818303038152906040529050949350505050565b60006108b77f0000000000000000000000000000000000000000000000000000000000000000836128c3565b80516060901515806118d95784846040516020016118c592919091825260c01b6001600160c01b031916602082015260280190565b604051602081830303815290604052611900565b848433856040516020016118f094939291906129af565b6040516020818303038152906040525b9150935093915050565b6040516001600160a01b0384811660248301528381166044830152606482018390526119719186918216906323b872dd906084015b604051602081830303815290604052915060e01b6020820180516001600160e01b038381831617835250505050611ab7565b50505050565b600081341461199b576040516304fb820960e51b81523460048201526024016107c5565b5090565b60007f00000000000000000000000000000000000000000000000000000000000000006001600160a01b031663e4fe1d946040518163ffffffff1660e01b8152600401602060405180830381865afa1580156119ff573d6000803e3d6000fd5b505050506040513d601f19601f82011682018060405250810190611a2391906129f2565b90506001600160a01b038116611a4c576040516329b99a9560e11b815260040160405180910390fd5b6108506001600160a01b038216337f00000000000000000000000000000000000000000000000000000000000000008561190a565b6040516001600160a01b03838116602483015260448201839052611ab291859182169063a9059cbb9060640161193f565b505050565b600080602060008451602086016000885af180611ada576040513d6000823e3d81fd5b50506000513d91508115611af2578060011415611aff565b6001600160a01b0384163b155b1561197157604051635274afe760e01b81526001600160a01b03851660048201526024016107c5565b60405180606001604052806000801916815260200160006001600160401b03168152602001611b6a604051806040016040528060008152602001600081525090565b905290565b600060e08284031215611b8157600080fd5b50919050565b600060208284031215611b9957600080fd5b81356001600160401b03811115611baf57600080fd5b6109e084828501611b6f565b60005b83811015611bd6578181015183820152602001611bbe565b50506000910152565b60008151808452611bf7816020860160208601611bbb565b601f01601f19169290920160200192915050565b8351815260208085015190820152600060a0820160a0604084015280855180835260c08501915060c08160051b86010192506020870160005b82811015611c8c5760bf198786030184528151805186526020810151905060406020870152611c766040870182611bdf565b9550506020938401939190910190600101611c44565b50508551606086015250506020840151608084015290506109e0565b600060608284031215611b8157600080fd5b60008083601f840112611ccc57600080fd5b5081356001600160401b03811115611ce357600080fd5b602083019150836020828501011115611cfb57600080fd5b9250929050565b6001600160a01b0381168114610f7557600080fd5b600080600080600080600060e0888a031215611d3257600080fd5b611d3c8989611ca8565b96506060880135955060808801356001600160401b03811115611d5e57600080fd5b611d6a8a828b01611cba565b90965094505060a0880135611d7e81611d02565b925060c08801356001600160401b03811115611d9957600080fd5b611da58a828b01611cba565b989b979a50959850939692959293505050565b803563ffffffff81168114611dcc57600080fd5b919050565b60008060408385031215611de457600080fd5b611ded83611db8565b946020939093013593505050565b8015158114610f7557600080fd5b60008060408385031215611e1c57600080fd5b82356001600160401b03811115611e3257600080fd5b611e3e85828601611b6f565b9250506020830135611e4f81611dfb565b809150509250929050565b8151815260208083015190820152604081016108b7565b803561ffff81168114611dcc57600080fd5b60008060408385031215611e9657600080fd5b611e9f83611db8565b9150611ead60208401611e71565b90509250929050565b60208152600061174a6020830184611bdf565b600060208284031215611edb57600080fd5b813561174a81611d02565b60008060008060a08587031215611efc57600080fd5b611f068686611ca8565b935060608501356001600160401b03811115611f2157600080fd5b611f2d87828801611cba565b9094509250506080850135611f4181611d02565b939692955090935050565b60008083601f840112611f5e57600080fd5b5081356001600160401b03811115611f7557600080fd5b6020830191508360208260051b8501011115611cfb57600080fd5b60008060208385031215611fa357600080fd5b82356001600160401b03811115611fb957600080fd5b611fc585828601611f4c565b90969095509350505050565b600060208284031215611fe357600080fd5b61174a82611db8565b6000806000806060858703121561200257600080fd5b61200b85611db8565b935061201960208601611e71565b925060408501356001600160401b0381111561203457600080fd5b61204087828801611cba565b95989497509550505050565b6000806000838503608081121561206257600080fd5b84356001600160401b0381111561207857600080fd5b61208487828801611b6f565b9450506040601f198201121561209957600080fd5b5060208401915060608401356120ae81611d02565b809150509250925092565b600060c082019050835182526001600160401b03602085015116602083015260408401516120f4604084018280518252602090810151910152565b5082516080830152602083015160a083015261174a565b60006060828403121561211d57600080fd5b61174a8383611ca8565b634e487b7160e01b600052604160045260246000fd5b600181811c9082168061215157607f821691505b602082108103611b8157634e487b7160e01b600052602260045260246000fd5b604051606081016001600160401b038111828210171561219357612193612127565b60405290565b604080519081016001600160401b038111828210171561219357612193612127565b604051601f8201601f191681016001600160401b03811182821017156121e3576121e3612127565b604052919050565b60006001600160401b0382111561220457612204612127565b50601f01601f191660200190565b60006001600160401b0383111561222b5761222b612127565b8260051b61223b602082016121bb565b8481529083019060208101903683111561225457600080fd5b845b838110156123315780356001600160401b0381111561227457600080fd5b8601606036829003121561228757600080fd5b61228f612171565b61229882611db8565b81526122a660208301611e71565b602082015260408201356001600160401b038111156122c457600080fd5b919091019036601f8301126122d857600080fd5b81356122eb6122e6826121eb565b6121bb565b81815236602083860101111561230057600080fd5b8160208501602083013760006020838301015280604084015250508085525050602083019250602081019050612256565b5095945050505050565b6000808585111561234b57600080fd5b8386111561235857600080fd5b5050820193919092039150565b60008451612377818460208901611bbb565b8201838582376000930192835250909392505050565b81835281816020850137506000828201602090810191909152601f909101601f19169091010190565b6020815260006109e060208301848661238d565b634e487b7160e01b600052603260045260246000fd5b6000823561013e198336030181126123f757600080fd5b9190910192915050565b6000808335601e1984360301811261241857600080fd5b8301803591506001600160401b0382111561243257600080fd5b602001915036819003821315611cfb57600080fd5b6001600160401b0381168114610f7557600080fd5b63ffffffff61246a89611db8565b168152602088810135908201526000604089013561248781612447565b6001600160401b03811660408401525087606083015260e060808301526124b260e08301878961238d565b6001600160a01b03861660a084015282810360c08401526124d481858761238d565b9a9950505050505050505050565b6000602082840312156124f457600080fd5b81516001600160401b0381111561250a57600080fd5b8201601f8101841361251b57600080fd5b80516125296122e6826121eb565b81815285602083850101111561253e57600080fd5b611413826020830160208601611bbb565b6000604082840312801561256257600080fd5b5061256b612199565b823581526020928301359281019290925250919050565b60006020828403121561259457600080fd5b813561174a81612447565b60018060a01b038516815283602082015261ffff831660408201526080606082015260006125d06080830184611bdf565b9695505050505050565b6040815260006125ed6040830185611bdf565b82810360208401526114138185611bdf565b60006020828403121561261157600080fd5b815161174a81611dfb565b6040815263ffffffff8351166040820152602083015160608201526000604084015160a0608084015261265260e0840182611bdf565b90506060850151603f198483030160a085015261266f8282611bdf565b60809690960151151560c08501525050506001600160a01b039190911660209091015290565b6000604082840312156126a757600080fd5b6126af612199565b825181526020928301519281019290925250919050565b6000604082840312156126d857600080fd5b61174a8383612695565b601f821115611ab257806000526020600020601f840160051c810160208510156127095750805b601f840160051c820191505b81811015610eae5760008155600101612715565b81516001600160401b0381111561274257612742612127565b61275681612750845461213d565b846126e2565b6020601f82116001811461278a57600083156127725750848201515b600019600385901b1c1916600184901b178455610eae565b600084815260208120601f198516915b828110156127ba578785015182556020948501946001909201910161279a565b50848210156127d85786840151600019600387901b60f8161c191681555b50505050600190811b01905550565b6000602082016020835280845180835260408501915060408160051b86010192506020860160005b8281101561286b57603f19878603018452815163ffffffff815116865261ffff602082015116602087015260408101519050606060408701526128556060870182611bdf565b955050602093840193919091019060010161280f565b50929695505050505050565b6000608082840312801561288a57600080fd5b50612893612171565b8251815260208301516128a581612447565b60208201526128b78460408501612695565b60408201529392505050565b6000826128e057634e487b7160e01b600052601260045260246000fd5b500490565b80820281158282048414176108b757634e487b7160e01b600052601160045260246000fd5b803560208310156108b757600019602084900360031b1b1692915050565b80356001600160c01b03198116906008841015612959576001600160c01b0319600885900360031b81901b82161691505b5092915050565b6001600160401b0360c01b8560c01b16815263ffffffff60e01b8460e01b16600882015282600c8201526000825161299f81602c850160208701611bbb565b91909101602c0195945050505050565b8481526001600160401b0360c01b8460c01b166020820152826028820152600082516129e2816048850160208701611bbb565b9190910160480195945050505050565b600060208284031215612a0457600080fd5b815161174a81611d0256fea2646970667358221220f1e8c917580c9ecb78fb730abf058e2f7e6a4fdaf1ebc3393340493acfd3551c64736f6c634300081c0033","linkReferences":{}},"methodIdentifiers":{"SEND()":"1f5e1334","SEND_AND_CALL()":"134d4f25","allowInitializePath((uint32,bytes32,uint64))":"ff7bd03d","approvalRequired()":"9f68b964","combineOptions(uint32,uint16,bytes)":"bc70b354","decimalConversionRate()":"963efcaa","endpoint()":"5e280f11","enforcedOptions(uint32,uint16)":"5535d461","isComposeMsgSender((uint32,bytes32,uint64),bytes,address)":"82413eac","isPeer(uint32,bytes32)":"5a0dfe4d","lzReceive((uint32,bytes32,uint64),bytes32,bytes,address,bytes)":"13137d65","lzReceiveAndRevert(((uint32,bytes32,uint64),uint32,address,bytes32,uint256,address,bytes,bytes)[])":"bd815db0","lzReceiveSimulate((uint32,bytes32,uint64),bytes32,bytes,address,bytes)":"d045a0dc","msgInspector()":"111ecdad","nextNonce(uint32,bytes32)":"7d25a05e","oApp()":"52ae2879","oAppVersion()":"17442b70","oftVersion()":"156a0d0f","owner()":"8da5cb5b","peers(uint32)":"bb0b6a53","preCrime()":"b731ea0a","quoteOFT((uint32,bytes32,uint256,uint256,bytes,bytes,bytes))":"0d35b415","quoteSend((uint32,bytes32,uint256,uint256,bytes,bytes,bytes),bool)":"3b6f743b","renounceOwnership()":"715018a6","send((uint32,bytes32,uint256,uint256,bytes,bytes,bytes),(uint256,uint256),address)":"c7c7f5b3","setDelegate(address)":"ca5eb5e1","setEnforcedOptions((uint32,uint16,bytes)[])":"b98bd070","setMsgInspector(address)":"6fc1b31e","setPeer(uint32,bytes32)":"3400288b","setPreCrime(address)":"d4243885","sharedDecimals()":"857749b0","token()":"fc0c546a","transferOwnership(address)":"f2fde38b"},"id":37}