{"abi":[{"type":"constructor","inputs":[{"name":"_lzEndpoint","type":"address","internalType":"address"},{"name":"_owner","type":"address","internalType":"address"},{"name":"_receiver","type":"address","internalType":"address"}],"stateMutability":"nonpayable"},{"type":"function","name":"INITIAL_SUPPLY","inputs":[],"outputs":[{"name":"","type":"uint256","internalType":"uint256"}],"stateMutability":"view"},{"type":"function","name":"SEND","inputs":[],"outputs":[{"name":"","type":"uint16","internalType":"uint16"}],"stateMutability":"view"},{"type":"function","name":"SEND_AND_CALL","inputs":[],"outputs":[{"name":"","type":"uint16","internalType":"uint16"}],"stateMutability":"view"},{"type":"function","name":"allowInitializePath","inputs":[{"name":"origin","type":"tuple","internalType":"struct Origin","components":[{"name":"srcEid","type":"uint32","internalType":"uint32"},{"name":"sender","type":"bytes32","internalType":"bytes32"},{"name":"nonce","type":"uint64","internalType":"uint64"}]}],"outputs":[{"name":"","type":"bool","internalType":"bool"}],"stateMutability":"view"},{"type":"function","name":"allowance","inputs":[{"name":"owner","type":"address","internalType":"address"},{"name":"spender","type":"address","internalType":"address"}],"outputs":[{"name":"","type":"uint256","internalType":"uint256"}],"stateMutability":"view"},{"type":"function","name":"approvalRequired","inputs":[],"outputs":[{"name":"","type":"bool","internalType":"bool"}],"stateMutability":"pure"},{"type":"function","name":"approve","inputs":[{"name":"spender","type":"address","internalType":"address"},{"name":"value","type":"uint256","internalType":"uint256"}],"outputs":[{"name":"","type":"bool","internalType":"bool"}],"stateMutability":"nonpayable"},{"type":"function","name":"balanceOf","inputs":[{"name":"account","type":"address","internalType":"address"}],"outputs":[{"name":"","type":"uint256","internalType":"uint256"}],"stateMutability":"view"},{"type":"function","name":"combineOptions","inputs":[{"name":"_eid","type":"uint32","internalType":"uint32"},{"name":"_msgType","type":"uint16","internalType":"uint16"},{"name":"_extraOptions","type":"bytes","internalType":"bytes"}],"outputs":[{"name":"","type":"bytes","internalType":"bytes"}],"stateMutability":"view"},{"type":"function","name":"decimalConversionRate","inputs":[],"outputs":[{"name":"","type":"uint256","internalType":"uint256"}],"stateMutability":"view"},{"type":"function","name":"decimals","inputs":[],"outputs":[{"name":"","type":"uint8","internalType":"uint8"}],"stateMutability":"view"},{"type":"function","name":"endpoint","inputs":[],"outputs":[{"name":"","type":"address","internalType":"contract ILayerZeroEndpointV2"}],"stateMutability":"view"},{"type":"function","name":"enforcedOptions","inputs":[{"name":"eid","type":"uint32","internalType":"uint32"},{"name":"msgType","type":"uint16","internalType":"uint16"}],"outputs":[{"name":"enforcedOption","type":"bytes","internalType":"bytes"}],"stateMutability":"view"},{"type":"function","name":"isComposeMsgSender","inputs":[{"name":"","type":"tuple","internalType":"struct Origin","components":[{"name":"srcEid","type":"uint32","internalType":"uint32"},{"name":"sender","type":"bytes32","internalType":"bytes32"},{"name":"nonce","type":"uint64","internalType":"uint64"}]},{"name":"","type":"bytes","internalType":"bytes"},{"name":"_sender","type":"address","internalType":"address"}],"outputs":[{"name":"","type":"bool","internalType":"bool"}],"stateMutability":"view"},{"type":"function","name":"isPeer","inputs":[{"name":"_eid","type":"uint32","internalType":"uint32"},{"name":"_peer","type":"bytes32","internalType":"bytes32"}],"outputs":[{"name":"","type":"bool","internalType":"bool"}],"stateMutability":"view"},{"type":"function","name":"lzReceive","inputs":[{"name":"_origin","type":"tuple","internalType":"struct Origin","components":[{"name":"srcEid","type":"uint32","internalType":"uint32"},{"name":"sender","type":"bytes32","internalType":"bytes32"},{"name":"nonce","type":"uint64","internalType":"uint64"}]},{"name":"_guid","type":"bytes32","internalType":"bytes32"},{"name":"_message","type":"bytes","internalType":"bytes"},{"name":"_executor","type":"address","internalType":"address"},{"name":"_extraData","type":"bytes","internalType":"bytes"}],"outputs":[],"stateMutability":"payable"},{"type":"function","name":"lzReceiveAndRevert","inputs":[{"name":"_packets","type":"tuple[]","internalType":"struct InboundPacket[]","components":[{"name":"origin","type":"tuple","internalType":"struct Origin","components":[{"name":"srcEid","type":"uint32","internalType":"uint32"},{"name":"sender","type":"bytes32","internalType":"bytes32"},{"name":"nonce","type":"uint64","internalType":"uint64"}]},{"name":"dstEid","type":"uint32","internalType":"uint32"},{"name":"receiver","type":"address","internalType":"address"},{"name":"guid","type":"bytes32","internalType":"bytes32"},{"name":"value","type":"uint256","internalType":"uint256"},{"name":"executor","type":"address","internalType":"address"},{"name":"message","type":"bytes","internalType":"bytes"},{"name":"extraData","type":"bytes","internalType":"bytes"}]}],"outputs":[],"stateMutability":"payable"},{"type":"function","name":"lzReceiveSimulate","inputs":[{"name":"_origin","type":"tuple","internalType":"struct Origin","components":[{"name":"srcEid","type":"uint32","internalType":"uint32"},{"name":"sender","type":"bytes32","internalType":"bytes32"},{"name":"nonce","type":"uint64","internalType":"uint64"}]},{"name":"_guid","type":"bytes32","internalType":"bytes32"},{"name":"_message","type":"bytes","internalType":"bytes"},{"name":"_executor","type":"address","internalType":"address"},{"name":"_extraData","type":"bytes","internalType":"bytes"}],"outputs":[],"stateMutability":"payable"},{"type":"function","name":"msgInspector","inputs":[],"outputs":[{"name":"","type":"address","internalType":"address"}],"stateMutability":"view"},{"type":"function","name":"name","inputs":[],"outputs":[{"name":"","type":"string","internalType":"string"}],"stateMutability":"view"},{"type":"function","name":"nextNonce","inputs":[{"name":"","type":"uint32","internalType":"uint32"},{"name":"","type":"bytes32","internalType":"bytes32"}],"outputs":[{"name":"nonce","type":"uint64","internalType":"uint64"}],"stateMutability":"view"},{"type":"function","name":"oApp","inputs":[],"outputs":[{"name":"","type":"address","internalType":"address"}],"stateMutability":"view"},{"type":"function","name":"oAppVersion","inputs":[],"outputs":[{"name":"senderVersion","type":"uint64","internalType":"uint64"},{"name":"receiverVersion","type":"uint64","internalType":"uint64"}],"stateMutability":"pure"},{"type":"function","name":"oftVersion","inputs":[],"outputs":[{"name":"interfaceId","type":"bytes4","internalType":"bytes4"},{"name":"version","type":"uint64","internalType":"uint64"}],"stateMutability":"pure"},{"type":"function","name":"owner","inputs":[],"outputs":[{"name":"","type":"address","internalType":"address"}],"stateMutability":"view"},{"type":"function","name":"peers","inputs":[{"name":"eid","type":"uint32","internalType":"uint32"}],"outputs":[{"name":"peer","type":"bytes32","internalType":"bytes32"}],"stateMutability":"view"},{"type":"function","name":"preCrime","inputs":[],"outputs":[{"name":"","type":"address","internalType":"address"}],"stateMutability":"view"},{"type":"function","name":"quoteOFT","inputs":[{"name":"_sendParam","type":"tuple","internalType":"struct SendParam","components":[{"name":"dstEid","type":"uint32","internalType":"uint32"},{"name":"to","type":"bytes32","internalType":"bytes32"},{"name":"amountLD","type":"uint256","internalType":"uint256"},{"name":"minAmountLD","type":"uint256","internalType":"uint256"},{"name":"extraOptions","type":"bytes","internalType":"bytes"},{"name":"composeMsg","type":"bytes","internalType":"bytes"},{"name":"oftCmd","type":"bytes","internalType":"bytes"}]}],"outputs":[{"name":"oftLimit","type":"tuple","internalType":"struct OFTLimit","components":[{"name":"minAmountLD","type":"uint256","internalType":"uint256"},{"name":"maxAmountLD","type":"uint256","internalType":"uint256"}]},{"name":"oftFeeDetails","type":"tuple[]","internalType":"struct OFTFeeDetail[]","components":[{"name":"feeAmountLD","type":"int256","internalType":"int256"},{"name":"description","type":"string","internalType":"string"}]},{"name":"oftReceipt","type":"tuple","internalType":"struct OFTReceipt","components":[{"name":"amountSentLD","type":"uint256","internalType":"uint256"},{"name":"amountReceivedLD","type":"uint256","internalType":"uint256"}]}],"stateMutability":"view"},{"type":"function","name":"quoteSend","inputs":[{"name":"_sendParam","type":"tuple","internalType":"struct SendParam","components":[{"name":"dstEid","type":"uint32","internalType":"uint32"},{"name":"to","type":"bytes32","internalType":"bytes32"},{"name":"amountLD","type":"uint256","internalType":"uint256"},{"name":"minAmountLD","type":"uint256","internalType":"uint256"},{"name":"extraOptions","type":"bytes","internalType":"bytes"},{"name":"composeMsg","type":"bytes","internalType":"bytes"},{"name":"oftCmd","type":"bytes","internalType":"bytes"}]},{"name":"_payInLzToken","type":"bool","internalType":"bool"}],"outputs":[{"name":"msgFee","type":"tuple","internalType":"struct MessagingFee","components":[{"name":"nativeFee","type":"uint256","internalType":"uint256"},{"name":"lzTokenFee","type":"uint256","internalType":"uint256"}]}],"stateMutability":"view"},{"type":"function","name":"renounceOwnership","inputs":[],"outputs":[],"stateMutability":"nonpayable"},{"type":"function","name":"send","inputs":[{"name":"_sendParam","type":"tuple","internalType":"struct SendParam","components":[{"name":"dstEid","type":"uint32","internalType":"uint32"},{"name":"to","type":"bytes32","internalType":"bytes32"},{"name":"amountLD","type":"uint256","internalType":"uint256"},{"name":"minAmountLD","type":"uint256","internalType":"uint256"},{"name":"extraOptions","type":"bytes","internalType":"bytes"},{"name":"composeMsg","type":"bytes","internalType":"bytes"},{"name":"oftCmd","type":"bytes","internalType":"bytes"}]},{"name":"_fee","type":"tuple","internalType":"struct MessagingFee","components":[{"name":"nativeFee","type":"uint256","internalType":"uint256"},{"name":"lzTokenFee","type":"uint256","internalType":"uint256"}]},{"name":"_refundAddress","type":"address","internalType":"address"}],"outputs":[{"name":"msgReceipt","type":"tuple","internalType":"struct MessagingReceipt","components":[{"name":"guid","type":"bytes32","internalType":"bytes32"},{"name":"nonce","type":"uint64","internalType":"uint64"},{"name":"fee","type":"tuple","internalType":"struct MessagingFee","components":[{"name":"nativeFee","type":"uint256","internalType":"uint256"},{"name":"lzTokenFee","type":"uint256","internalType":"uint256"}]}]},{"name":"oftReceipt","type":"tuple","internalType":"struct OFTReceipt","components":[{"name":"amountSentLD","type":"uint256","internalType":"uint256"},{"name":"amountReceivedLD","type":"uint256","internalType":"uint256"}]}],"stateMutability":"payable"},{"type":"function","name":"setDelegate","inputs":[{"name":"_delegate","type":"address","internalType":"address"}],"outputs":[],"stateMutability":"nonpayable"},{"type":"function","name":"setEnforcedOptions","inputs":[{"name":"_enforcedOptions","type":"tuple[]","internalType":"struct EnforcedOptionParam[]","components":[{"name":"eid","type":"uint32","internalType":"uint32"},{"name":"msgType","type":"uint16","internalType":"uint16"},{"name":"options","type":"bytes","internalType":"bytes"}]}],"outputs":[],"stateMutability":"nonpayable"},{"type":"function","name":"setMsgInspector","inputs":[{"name":"_msgInspector","type":"address","internalType":"address"}],"outputs":[],"stateMutability":"nonpayable"},{"type":"function","name":"setPeer","inputs":[{"name":"_eid","type":"uint32","internalType":"uint32"},{"name":"_peer","type":"bytes32","internalType":"bytes32"}],"outputs":[],"stateMutability":"nonpayable"},{"type":"function","name":"setPreCrime","inputs":[{"name":"_preCrime","type":"address","internalType":"address"}],"outputs":[],"stateMutability":"nonpayable"},{"type":"function","name":"sharedDecimals","inputs":[],"outputs":[{"name":"","type":"uint8","internalType":"uint8"}],"stateMutability":"view"},{"type":"function","name":"symbol","inputs":[],"outputs":[{"name":"","type":"string","internalType":"string"}],"stateMutability":"view"},{"type":"function","name":"token","inputs":[],"outputs":[{"name":"","type":"address","internalType":"address"}],"stateMutability":"view"},{"type":"function","name":"totalSupply","inputs":[],"outputs":[{"name":"","type":"uint256","internalType":"uint256"}],"stateMutability":"view"},{"type":"function","name":"transfer","inputs":[{"name":"to","type":"address","internalType":"address"},{"name":"value","type":"uint256","internalType":"uint256"}],"outputs":[{"name":"","type":"bool","internalType":"bool"}],"stateMutability":"nonpayable"},{"type":"function","name":"transferFrom","inputs":[{"name":"from","type":"address","internalType":"address"},{"name":"to","type":"address","internalType":"address"},{"name":"value","type":"uint256","internalType":"uint256"}],"outputs":[{"name":"","type":"bool","internalType":"bool"}],"stateMutability":"nonpayable"},{"type":"function","name":"transferOwnership","inputs":[{"name":"newOwner","type":"address","internalType":"address"}],"outputs":[],"stateMutability":"nonpayable"},{"type":"event","name":"Approval","inputs":[{"name":"owner","type":"address","indexed":true,"internalType":"address"},{"name":"spender","type":"address","indexed":true,"internalType":"address"},{"name":"value","type":"uint256","indexed":false,"internalType":"uint256"}],"anonymous":false},{"type":"event","name":"EnforcedOptionSet","inputs":[{"name":"_enforcedOptions","type":"tuple[]","indexed":false,"internalType":"struct EnforcedOptionParam[]","components":[{"name":"eid","type":"uint32","internalType":"uint32"},{"name":"msgType","type":"uint16","internalType":"uint16"},{"name":"options","type":"bytes","internalType":"bytes"}]}],"anonymous":false},{"type":"event","name":"MsgInspectorSet","inputs":[{"name":"inspector","type":"address","indexed":false,"internalType":"address"}],"anonymous":false},{"type":"event","name":"OFTReceived","inputs":[{"name":"guid","type":"bytes32","indexed":true,"internalType":"bytes32"},{"name":"srcEid","type":"uint32","indexed":false,"internalType":"uint32"},{"name":"toAddress","type":"address","indexed":true,"internalType":"address"},{"name":"amountReceivedLD","type":"uint256","indexed":false,"internalType":"uint256"}],"anonymous":false},{"type":"event","name":"OFTSent","inputs":[{"name":"guid","type":"bytes32","indexed":true,"internalType":"bytes32"},{"name":"dstEid","type":"uint32","indexed":false,"internalType":"uint32"},{"name":"fromAddress","type":"address","indexed":true,"internalType":"address"},{"name":"amountSentLD","type":"uint256","indexed":false,"internalType":"uint256"},{"name":"amountReceivedLD","type":"uint256","indexed":false,"internalType":"uint256"}],"anonymous":false},{"type":"event","name":"OwnershipTransferred","inputs":[{"name":"previousOwner","type":"address","indexed":true,"internalType":"address"},{"name":"newOwner","type":"address","indexed":true,"internalType":"address"}],"anonymous":false},{"type":"event","name":"PeerSet","inputs":[{"name":"eid","type":"uint32","indexed":false,"internalType":"uint32"},{"name":"peer","type":"bytes32","indexed":false,"internalType":"bytes32"}],"anonymous":false},{"type":"event","name":"PreCrimeSet","inputs":[{"name":"preCrimeAddress","type":"address","indexed":false,"internalType":"address"}],"anonymous":false},{"type":"event","name":"Transfer","inputs":[{"name":"from","type":"address","indexed":true,"internalType":"address"},{"name":"to","type":"address","indexed":true,"internalType":"address"},{"name":"value","type":"uint256","indexed":false,"internalType":"uint256"}],"anonymous":false},{"type":"error","name":"AmountSDOverflowed","inputs":[{"name":"amountSD","type":"uint256","internalType":"uint256"}]},{"type":"error","name":"ERC20InsufficientAllowance","inputs":[{"name":"spender","type":"address","internalType":"address"},{"name":"allowance","type":"uint256","internalType":"uint256"},{"name":"needed","type":"uint256","internalType":"uint256"}]},{"type":"error","name":"ERC20InsufficientBalance","inputs":[{"name":"sender","type":"address","internalType":"address"},{"name":"balance","type":"uint256","internalType":"uint256"},{"name":"needed","type":"uint256","internalType":"uint256"}]},{"type":"error","name":"ERC20InvalidApprover","inputs":[{"name":"approver","type":"address","internalType":"address"}]},{"type":"error","name":"ERC20InvalidReceiver","inputs":[{"name":"receiver","type":"address","internalType":"address"}]},{"type":"error","name":"ERC20InvalidSender","inputs":[{"name":"sender","type":"address","internalType":"address"}]},{"type":"error","name":"ERC20InvalidSpender","inputs":[{"name":"spender","type":"address","internalType":"address"}]},{"type":"error","name":"InvalidDelegate","inputs":[]},{"type":"error","name":"InvalidEndpointCall","inputs":[]},{"type":"error","name":"InvalidLocalDecimals","inputs":[]},{"type":"error","name":"InvalidOptions","inputs":[{"name":"options","type":"bytes","internalType":"bytes"}]},{"type":"error","name":"LzTokenUnavailable","inputs":[]},{"type":"error","name":"NoPeer","inputs":[{"name":"eid","type":"uint32","internalType":"uint32"}]},{"type":"error","name":"NotEnoughNative","inputs":[{"name":"msgValue","type":"uint256","internalType":"uint256"}]},{"type":"error","name":"OnlyEndpoint","inputs":[{"name":"addr","type":"address","internalType":"address"}]},{"type":"error","name":"OnlyPeer","inputs":[{"name":"eid","type":"uint32","internalType":"uint32"},{"name":"sender","type":"bytes32","internalType":"bytes32"}]},{"type":"error","name":"OnlySelf","inputs":[]},{"type":"error","name":"OwnableInvalidOwner","inputs":[{"name":"owner","type":"address","internalType":"address"}]},{"type":"error","name":"OwnableUnauthorizedAccount","inputs":[{"name":"account","type":"address","internalType":"address"}]},{"type":"error","name":"SafeERC20FailedOperation","inputs":[{"name":"token","type":"address","internalType":"address"}]},{"type":"error","name":"SimulationResult","inputs":[{"name":"result","type":"bytes","internalType":"bytes"}]},{"type":"error","name":"SlippageExceeded","inputs":[{"name":"amountLD","type":"uint256","internalType":"uint256"},{"name":"minAmountLD","type":"uint256","internalType":"uint256"}]}],"bytecode":{"object":"0x60c060405234801561000f575f5ffd5b50604051615e31380380615e31833981810160405281019061003191906106d1565b6040518060400160405280600e81526020017f5a45524f4241534520546f6b656e0000000000000000000000000000000000008152506040518060400160405280600381526020017f5a42540000000000000000000000000000000000000000000000000000000000815250848483836100af61030160201b60201c565b8484818181818e5f73ffffffffffffffffffffffffffffffffffffffff168173ffffffffffffffffffffffffffffffffffffffff1603610126575f6040517f1e4fbdf700000000000000000000000000000000000000000000000000000000815260040161011d9190610730565b60405180910390fd5b6101358161030960201b60201c565b508173ffffffffffffffffffffffffffffffffffffffff1660808173ffffffffffffffffffffffffffffffffffffffff16815250505f73ffffffffffffffffffffffffffffffffffffffff168173ffffffffffffffffffffffffffffffffffffffff16036101cf576040517fb586360400000000000000000000000000000000000000000000000000000000815260040160405180910390fd5b60805173ffffffffffffffffffffffffffffffffffffffff1663ca5eb5e1826040518263ffffffff1660e01b815260040161020a9190610730565b5f604051808303815f87803b158015610221575f5ffd5b505af1158015610233573d5f5f3e3d5ffd5b50505050505050506102496103ca60201b60201c565b60ff168360ff161015610288576040517f1e9714b000000000000000000000000000000000000000000000000000000000815260040160405180910390fd5b6102966103ca60201b60201c565b836102a19190610782565b600a6102ad91906108ee565b60a0818152505050505081600890816102c69190610b6c565b5080600990816102d69190610b6c565b505050505050506102f9816b033b2e3c9fd0803ce80000006103d260201b60201c565b505050610ccb565b5f6012905090565b5f5f5f9054906101000a900473ffffffffffffffffffffffffffffffffffffffff169050815f5f6101000a81548173ffffffffffffffffffffffffffffffffffffffff021916908373ffffffffffffffffffffffffffffffffffffffff1602179055508173ffffffffffffffffffffffffffffffffffffffff168173ffffffffffffffffffffffffffffffffffffffff167f8be0079c531659141344cd1fd0a4f28419497f9722a3daafe3b4186f6b6457e060405160405180910390a35050565b5f6006905090565b5f73ffffffffffffffffffffffffffffffffffffffff168273ffffffffffffffffffffffffffffffffffffffff1603610442575f6040517fec442f050000000000000000000000000000000000000000000000000000000081526004016104399190610730565b60405180910390fd5b6104535f838361045760201b60201c565b5050565b5f73ffffffffffffffffffffffffffffffffffffffff168373ffffffffffffffffffffffffffffffffffffffff16036104a7578060075f82825461049b9190610c3b565b92505081905550610577565b5f60055f8573ffffffffffffffffffffffffffffffffffffffff1673ffffffffffffffffffffffffffffffffffffffff1681526020019081526020015f2054905081811015610531578381836040517fe450d38c00000000000000000000000000000000000000000000000000000000815260040161052893929190610c7d565b60405180910390fd5b81810360055f8673ffffffffffffffffffffffffffffffffffffffff1673ffffffffffffffffffffffffffffffffffffffff1681526020019081526020015f2081905550505b5f73ffffffffffffffffffffffffffffffffffffffff168273ffffffffffffffffffffffffffffffffffffffff16036105be578060075f8282540392505081905550610609565b8060055f8473ffffffffffffffffffffffffffffffffffffffff1673ffffffffffffffffffffffffffffffffffffffff1681526020019081526020015f205f82825401925050819055505b8173ffffffffffffffffffffffffffffffffffffffff168373ffffffffffffffffffffffffffffffffffffffff167fddf252ad1be2c89b69c2b068fc378daa952ba7f163c4a11628f55a4df523b3ef836040516106669190610cb2565b60405180910390a3505050565b5f5ffd5b5f73ffffffffffffffffffffffffffffffffffffffff82169050919050565b5f6106a082610677565b9050919050565b6106b081610696565b81146106ba575f5ffd5b50565b5f815190506106cb816106a7565b92915050565b5f5f5f606084860312156106e8576106e7610673565b5b5f6106f5868287016106bd565b9350506020610706868287016106bd565b9250506040610717868287016106bd565b9150509250925092565b61072a81610696565b82525050565b5f6020820190506107435f830184610721565b92915050565b5f60ff82169050919050565b7f4e487b71000000000000000000000000000000000000000000000000000000005f52601160045260245ffd5b5f61078c82610749565b915061079783610749565b9250828203905060ff8111156107b0576107af610755565b5b92915050565b5f8160011c9050919050565b5f5f8291508390505b600185111561080b578086048111156107e7576107e6610755565b5b60018516156107f65780820291505b8081029050610804856107b6565b94506107cb565b94509492505050565b5f8261082357600190506108de565b81610830575f90506108de565b816001811461084657600281146108505761087f565b60019150506108de565b60ff84111561086257610861610755565b5b8360020a91508482111561087957610878610755565b5b506108de565b5060208310610133831016604e8410600b84101617156108b45782820a9050838111156108af576108ae610755565b5b6108de565b6108c184848460016107c2565b925090508184048111156108d8576108d7610755565b5b81810290505b9392505050565b5f819050919050565b5f6108f8826108e5565b915061090383610749565b92506109307fffffffffffffffffffffffffffffffffffffffffffffffffffffffffffffffff8484610814565b905092915050565b5f81519050919050565b7f4e487b71000000000000000000000000000000000000000000000000000000005f52604160045260245ffd5b7f4e487b71000000000000000000000000000000000000000000000000000000005f52602260045260245ffd5b5f60028204905060018216806109b357607f821691505b6020821081036109c6576109c561096f565b5b50919050565b5f819050815f5260205f209050919050565b5f6020601f8301049050919050565b5f82821b905092915050565b5f60088302610a287fffffffffffffffffffffffffffffffffffffffffffffffffffffffffffffffff826109ed565b610a3286836109ed565b95508019841693508086168417925050509392505050565b5f819050919050565b5f610a6d610a68610a63846108e5565b610a4a565b6108e5565b9050919050565b5f819050919050565b610a8683610a53565b610a9a610a9282610a74565b8484546109f9565b825550505050565b5f5f905090565b610ab1610aa2565b610abc818484610a7d565b505050565b5b81811015610adf57610ad45f82610aa9565b600181019050610ac2565b5050565b601f821115610b2457610af5816109cc565b610afe846109de565b81016020851015610b0d578190505b610b21610b19856109de565b830182610ac1565b50505b505050565b5f82821c905092915050565b5f610b445f1984600802610b29565b1980831691505092915050565b5f610b5c8383610b35565b9150826002028217905092915050565b610b7582610938565b67ffffffffffffffff811115610b8e57610b8d610942565b5b610b98825461099c565b610ba3828285610ae3565b5f60209050601f831160018114610bd4575f8415610bc2578287015190505b610bcc8582610b51565b865550610c33565b601f198416610be2866109cc565b5f5b82811015610c0957848901518255600182019150602085019450602081019050610be4565b86831015610c265784890151610c22601f891682610b35565b8355505b6001600288020188555050505b505050505050565b5f610c45826108e5565b9150610c50836108e5565b9250828201905080821115610c6857610c67610755565b5b92915050565b610c77816108e5565b82525050565b5f606082019050610c905f830186610721565b610c9d6020830185610c6e565b610caa6040830184610c6e565b949350505050565b5f602082019050610cc55f830184610c6e565b92915050565b60805160a0516150f8610d395f395f81816111b80152818161259f015281816125c00152818161266401526129b401525f8181610cc501528181610fb60152818161166001528181611aaa01528181611fa701528181612b0101528181612d530152612e4b01526150f85ff3fe60806040526004361061025b575f3560e01c8063715018a611610143578063bb0b6a53116100b5578063d045a0dc11610079578063d045a0dc1461091c578063d424388514610938578063dd62ed3e14610960578063f2fde38b1461099c578063fc0c546a146109c4578063ff7bd03d146109ee5761025b565b8063bb0b6a531461082f578063bc70b3541461086b578063bd815db0146108a7578063c7c7f5b3146108c3578063ca5eb5e1146108f45761025b565b806395d89b411161010757806395d89b4114610723578063963efcaa1461074d5780639f68b96414610777578063a9059cbb146107a1578063b731ea0a146107dd578063b98bd070146108075761025b565b8063715018a6146106415780637d25a05e1461065757806382413eac14610693578063857749b0146106cf5780638da5cb5b146106f95761025b565b806323b872dd116101dc57806352ae2879116101a057806352ae2879146105115780635535d4611461053b5780635a0dfe4d146105775780635e280f11146105b35780636fc1b31e146105dd57806370a08231146106055761025b565b806323b872dd1461041d5780632ff2e9dc14610459578063313ce567146104835780633400288b146104ad5780633b6f743b146104d55761025b565b8063134d4f2511610223578063134d4f2514610349578063156a0d0f1461037357806317442b701461039e57806318160ddd146103c95780631f5e1334146103f35761025b565b806306fdde031461025f578063095ea7b3146102895780630d35b415146102c5578063111ecdad1461030357806313137d651461032d575b5f5ffd5b34801561026a575f5ffd5b50610273610a2a565b604051610280919061305c565b60405180910390f35b348015610294575f5ffd5b506102af60048036038101906102aa919061311a565b610aba565b6040516102bc9190613172565b60405180910390f35b3480156102d0575f5ffd5b506102eb60048036038101906102e691906131ad565b610adc565b6040516102fa939291906133b2565b60405180910390f35b34801561030e575f5ffd5b50610317610c87565b60405161032491906133fd565b60405180910390f35b610347600480360381019061034291906134c8565b610cac565b005b348015610354575f5ffd5b5061035d610dcc565b60405161036a919061359b565b60405180910390f35b34801561037e575f5ffd5b50610387610dd1565b604051610395929190613610565b60405180910390f35b3480156103a9575f5ffd5b506103b2610dfe565b6040516103c0929190613637565b60405180910390f35b3480156103d4575f5ffd5b506103dd610e0c565b6040516103ea919061366d565b60405180910390f35b3480156103fe575f5ffd5b50610407610e15565b604051610414919061359b565b60405180910390f35b348015610428575f5ffd5b50610443600480360381019061043e9190613686565b610e1a565b6040516104509190613172565b60405180910390f35b348015610464575f5ffd5b5061046d610e48565b60405161047a919061366d565b60405180910390f35b34801561048e575f5ffd5b50610497610e58565b6040516104a491906136f1565b60405180910390f35b3480156104b8575f5ffd5b506104d360048036038101906104ce9190613743565b610e60565b005b3480156104e0575f5ffd5b506104fb60048036038101906104f691906137ab565b610e76565b6040516105089190613832565b60405180910390f35b34801561051c575f5ffd5b50610525610ede565b60405161053291906133fd565b60405180910390f35b348015610546575f5ffd5b50610561600480360381019061055c9190613875565b610ee5565b60405161056e9190613905565b60405180910390f35b348015610582575f5ffd5b5061059d60048036038101906105989190613743565b610f8b565b6040516105aa9190613172565b60405180910390f35b3480156105be575f5ffd5b506105c7610fb4565b6040516105d49190613980565b60405180910390f35b3480156105e8575f5ffd5b5061060360048036038101906105fe9190613999565b610fd8565b005b348015610610575f5ffd5b5061062b60048036038101906106269190613999565b61105a565b604051610638919061366d565b60405180910390f35b34801561064c575f5ffd5b506106556110a0565b005b348015610662575f5ffd5b5061067d60048036038101906106789190613743565b6110b3565b60405161068a91906139c4565b60405180910390f35b34801561069e575f5ffd5b506106b960048036038101906106b491906139dd565b6110bd565b6040516106c69190613172565b60405180910390f35b3480156106da575f5ffd5b506106e36110f7565b6040516106f091906136f1565b60405180910390f35b348015610704575f5ffd5b5061070d6110ff565b60405161071a91906133fd565b60405180910390f35b34801561072e575f5ffd5b50610737611126565b604051610744919061305c565b60405180910390f35b348015610758575f5ffd5b506107616111b6565b60405161076e919061366d565b60405180910390f35b348015610782575f5ffd5b5061078b6111da565b6040516107989190613172565b60405180910390f35b3480156107ac575f5ffd5b506107c760048036038101906107c2919061311a565b6111e1565b6040516107d49190613172565b60405180910390f35b3480156107e8575f5ffd5b506107f1611203565b6040516107fe91906133fd565b60405180910390f35b348015610812575f5ffd5b5061082d60048036038101906108289190613aa3565b611228565b005b34801561083a575f5ffd5b5061085560048036038101906108509190613aee565b611249565b6040516108629190613b28565b60405180910390f35b348015610876575f5ffd5b50610891600480360381019061088c9190613b41565b61125e565b60405161089e9190613905565b60405180910390f35b6108c160048036038101906108bc9190613c07565b611460565b005b6108dd60048036038101906108d89190613c70565b61162f565b6040516108eb929190613d67565b60405180910390f35b3480156108ff575f5ffd5b5061091a60048036038101906109159190613999565b611656565b005b610936600480360381019061093191906134c8565b6116e7565b005b348015610943575f5ffd5b5061095e60048036038101906109599190613999565b611764565b005b34801561096b575f5ffd5b5061098660048036038101906109819190613d8e565b6117e6565b604051610993919061366d565b60405180910390f35b3480156109a7575f5ffd5b506109c260048036038101906109bd9190613999565b611868565b005b3480156109cf575f5ffd5b506109d86118ec565b6040516109e591906133fd565b60405180910390f35b3480156109f9575f5ffd5b50610a146004803603810190610a0f9190613dcc565b6118f3565b604051610a219190613172565b60405180910390f35b606060088054610a3990613e24565b80601f0160208091040260200160405190810160405280929190818152602001828054610a6590613e24565b8015610ab05780601f10610a8757610100808354040283529160200191610ab0565b820191905f5260205f20905b815481529060010190602001808311610a9357829003601f168201915b5050505050905090565b5f5f610ac4611930565b9050610ad1818585611937565b600191505092915050565b610ae4612f5c565b6060610aee612f74565b5f5f90505f3073ffffffffffffffffffffffffffffffffffffffff1663fc0c546a6040518163ffffffff1660e01b8152600401602060405180830381865afa158015610b3c573d5f5f3e3d5ffd5b505050506040513d601f19601f82011682018060405250810190610b609190613e68565b73ffffffffffffffffffffffffffffffffffffffff166318160ddd6040518163ffffffff1660e01b8152600401602060405180830381865afa158015610ba8573d5f5f3e3d5ffd5b505050506040513d601f19601f82011682018060405250810190610bcc9190613ea7565b905060405180604001604052808381526020018281525094505f67ffffffffffffffff811115610bff57610bfe613ed2565b5b604051908082528060200260200182016040528015610c3857816020015b610c25612f8c565b815260200190600190039081610c1d5790505b5093505f5f610c61886040013589606001358a5f016020810190610c5c9190613aee565b611949565b915091506040518060400160405280838152602001828152509450505050509193909250565b60045f9054906101000a900473ffffffffffffffffffffffffffffffffffffffff1681565b3373ffffffffffffffffffffffffffffffffffffffff167f000000000000000000000000000000000000000000000000000000000000000073ffffffffffffffffffffffffffffffffffffffff1614610d3c57336040517f91ac5e4f000000000000000000000000000000000000000000000000000000008152600401610d3391906133fd565b60405180910390fd5b8660200135610d5b885f016020810190610d569190613aee565b6119a8565b14610db457865f016020810190610d729190613aee565b87602001356040517fc26bebcc000000000000000000000000000000000000000000000000000000008152600401610dab929190613f0e565b60405180910390fd5b610dc387878787878787611a19565b50505050505050565b600281565b5f5f7f02e49c2c000000000000000000000000000000000000000000000000000000006001915091509091565b5f5f60016002915091509091565b5f600754905090565b600181565b5f5f610e24611930565b9050610e31858285611ba3565b610e3c858585611c36565b60019150509392505050565b6b033b2e3c9fd0803ce800000081565b5f6012905090565b610e68611d26565b610e728282611dad565b5050565b610e7e612fa5565b5f610ea384604001358560600135865f016020810190610e9e9190613aee565b611949565b9150505f5f610eb28684611e0c565b91509150610ed3865f016020810190610ecb9190613aee565b838388611f9d565b935050505092915050565b5f30905090565b6003602052815f5260405f20602052805f5260405f205f91509150508054610f0c90613e24565b80601f0160208091040260200160405190810160405280929190818152602001828054610f3890613e24565b8015610f835780601f10610f5a57610100808354040283529160200191610f83565b820191905f5260205f20905b815481529060010190602001808311610f6657829003601f168201915b505050505081565b5f8160015f8563ffffffff1663ffffffff1681526020019081526020015f205414905092915050565b7f000000000000000000000000000000000000000000000000000000000000000081565b610fe0611d26565b8060045f6101000a81548173ffffffffffffffffffffffffffffffffffffffff021916908373ffffffffffffffffffffffffffffffffffffffff1602179055507ff0be4f1e87349231d80c36b33f9e8639658eeaf474014dee15a3e6a4d44141978160405161104f91906133fd565b60405180910390a150565b5f60055f8373ffffffffffffffffffffffffffffffffffffffff1673ffffffffffffffffffffffffffffffffffffffff1681526020019081526020015f20549050919050565b6110a8611d26565b6110b15f61207e565b565b5f5f905092915050565b5f3073ffffffffffffffffffffffffffffffffffffffff168273ffffffffffffffffffffffffffffffffffffffff16149050949350505050565b5f6006905090565b5f5f5f9054906101000a900473ffffffffffffffffffffffffffffffffffffffff16905090565b60606009805461113590613e24565b80601f016020809104026020016040519081016040528092919081815260200182805461116190613e24565b80156111ac5780601f10611183576101008083540402835291602001916111ac565b820191905f5260205f20905b81548152906001019060200180831161118f57829003601f168201915b5050505050905090565b7f000000000000000000000000000000000000000000000000000000000000000081565b5f5f905090565b5f5f6111eb611930565b90506111f8818585611c36565b600191505092915050565b60025f9054906101000a900473ffffffffffffffffffffffffffffffffffffffff1681565b611230611d26565b6112458282906112409190614166565b61213f565b5050565b6001602052805f5260405f205f915090505481565b60605f60035f8763ffffffff1663ffffffff1681526020019081526020015f205f8661ffff1661ffff1681526020019081526020015f2080546112a090613e24565b80601f01602080910402602001604051908101604052809291908181526020018280546112cc90613e24565b80156113175780601f106112ee57610100808354040283529160200191611317565b820191905f5260205f20905b8154815290600101906020018083116112fa57829003601f168201915b505050505090505f8151036113725783838080601f0160208091040260200160405190810160405280939291908181526020018383808284375f81840152601f19601f82011690508083019250505050505050915050611458565b5f84849050036113855780915050611458565b60028484905010611419576113dc84848080601f0160208091040260200160405190810160405280939291908181526020018383808284375f81840152601f19601f82011690508083019250505050505050612257565b80848460029080926113f093929190614182565b6040516020016114029392919061421a565b604051602081830303815290604052915050611458565b83836040517f9a6d49cd00000000000000000000000000000000000000000000000000000000815260040161144f92919061426b565b60405180910390fd5b949350505050565b5f5f90505b8282905081101561158257368383838181106114845761148361428d565b5b905060200281019061149691906142c6565b90506114bb815f015f0160208101906114af9190613aee565b825f0160200135610f8b565b6114c55750611575565b3073ffffffffffffffffffffffffffffffffffffffff1663d045a0dc8260c00135835f018460a00135858061010001906114ff91906142ee565b8760e00160208101906115129190613999565b8880610120019061152391906142ee565b6040518963ffffffff1660e01b81526004016115459796959493929190614423565b5f604051808303818588803b15801561155c575f5ffd5b505af115801561156e573d5f5f3e3d5ffd5b5050505050505b8080600101915050611465565b503373ffffffffffffffffffffffffffffffffffffffff16638e9e70996040518163ffffffff1660e01b81526004015f60405180830381865afa1580156115cb573d5f5f3e3d5ffd5b505050506040513d5f823e3d601f19601f820116820180604052508101906115f391906144f4565b6040517f8351eea70000000000000000000000000000000000000000000000000000000081526004016116269190613905565b60405180910390fd5b611637612fbd565b61163f612f74565b61164a8585856122b0565b91509150935093915050565b61165e611d26565b7f000000000000000000000000000000000000000000000000000000000000000073ffffffffffffffffffffffffffffffffffffffff1663ca5eb5e1826040518263ffffffff1660e01b81526004016116b791906133fd565b5f604051808303815f87803b1580156116ce575f5ffd5b505af11580156116e0573d5f5f3e3d5ffd5b5050505050565b3073ffffffffffffffffffffffffffffffffffffffff163373ffffffffffffffffffffffffffffffffffffffff161461174c576040517f14d4a4e800000000000000000000000000000000000000000000000000000000815260040160405180910390fd5b61175b878787878787876123b5565b50505050505050565b61176c611d26565b8060025f6101000a81548173ffffffffffffffffffffffffffffffffffffffff021916908373ffffffffffffffffffffffffffffffffffffffff1602179055507fd48d879cef83a1c0bdda516f27b13ddb1b3f8bbac1c9e1511bb2a659c2427760816040516117db91906133fd565b60405180910390a150565b5f60065f8473ffffffffffffffffffffffffffffffffffffffff1673ffffffffffffffffffffffffffffffffffffffff1681526020019081526020015f205f8373ffffffffffffffffffffffffffffffffffffffff1673ffffffffffffffffffffffffffffffffffffffff1681526020019081526020015f2054905092915050565b611870611d26565b5f73ffffffffffffffffffffffffffffffffffffffff168173ffffffffffffffffffffffffffffffffffffffff16036118e0575f6040517f1e4fbdf70000000000000000000000000000000000000000000000000000000081526004016118d791906133fd565b60405180910390fd5b6118e98161207e565b50565b5f30905090565b5f816020013560015f845f01602081019061190e9190613aee565b63ffffffff1663ffffffff1681526020019081526020015f2054149050919050565b5f33905090565b61194483838360016123cd565b505050565b5f5f6119548561259c565b9150819050838110156119a05780846040517f71c4efed00000000000000000000000000000000000000000000000000000000815260040161199792919061453b565b60405180910390fd5b935093915050565b5f5f60015f8463ffffffff1663ffffffff1681526020019081526020015f205490505f5f1b8103611a1057826040517ff6ff4fb7000000000000000000000000000000000000000000000000000000008152600401611a079190614562565b60405180910390fd5b80915050919050565b5f611a2c611a2787876125fb565b612625565b90505f611a5c82611a45611a408a8a612630565b612661565b8b5f016020810190611a579190613aee565b61269f565b9050611a6887876126ed565b15611b36575f611aa68a6040016020810190611a84919061457b565b8b5f016020810190611a969190613aee565b84611aa18c8c612700565b612762565b90507f000000000000000000000000000000000000000000000000000000000000000073ffffffffffffffffffffffffffffffffffffffff16637cb59012848b5f856040518563ffffffff1660e01b8152600401611b0794939291906145df565b5f604051808303815f87803b158015611b1e575f5ffd5b505af1158015611b30573d5f5f3e3d5ffd5b50505050505b8173ffffffffffffffffffffffffffffffffffffffff16887fefed6d3500546b29533b128a29e3a94d70788727f0507505ac12eaf2e578fd9c8b5f016020810190611b819190613aee565b84604051611b90929190614629565b60405180910390a3505050505050505050565b5f611bae84846117e6565b90507fffffffffffffffffffffffffffffffffffffffffffffffffffffffffffffffff811015611c305781811015611c21578281836040517ffb8f41b2000000000000000000000000000000000000000000000000000000008152600401611c1893929190614650565b60405180910390fd5b611c2f84848484035f6123cd565b5b50505050565b5f73ffffffffffffffffffffffffffffffffffffffff168373ffffffffffffffffffffffffffffffffffffffff1603611ca6575f6040517f96c6fd1e000000000000000000000000000000000000000000000000000000008152600401611c9d91906133fd565b60405180910390fd5b5f73ffffffffffffffffffffffffffffffffffffffff168273ffffffffffffffffffffffffffffffffffffffff1603611d16575f6040517fec442f05000000000000000000000000000000000000000000000000000000008152600401611d0d91906133fd565b60405180910390fd5b611d21838383612794565b505050565b611d2e611930565b73ffffffffffffffffffffffffffffffffffffffff16611d4c6110ff565b73ffffffffffffffffffffffffffffffffffffffff1614611dab57611d6f611930565b6040517f118cdaa7000000000000000000000000000000000000000000000000000000008152600401611da291906133fd565b60405180910390fd5b565b8060015f8463ffffffff1663ffffffff1681526020019081526020015f20819055507f238399d427b947898edb290f5ff0f9109849b1c3ba196a42e35f00c50a54b98b8282604051611e00929190613f0e565b60405180910390a15050565b6060805f611e788560200135611e21866129b0565b878060a00190611e3191906142ee565b8080601f0160208091040260200160405190810160405280939291908181526020018383808284375f81840152601f19601f82011690508083019250505050505050612a38565b80925081945050505f81611e8d576001611e90565b60025b9050611ebd865f016020810190611ea79190613aee565b82888060800190611eb891906142ee565b61125e565b92505f60045f9054906101000a900473ffffffffffffffffffffffffffffffffffffffff1690505f73ffffffffffffffffffffffffffffffffffffffff168173ffffffffffffffffffffffffffffffffffffffff1614611f93578073ffffffffffffffffffffffffffffffffffffffff1663043a78eb86866040518363ffffffff1660e01b8152600401611f52929190614685565b602060405180830381865afa158015611f6d573d5f5f3e3d5ffd5b505050506040513d601f19601f82011682018060405250810190611f9191906146ce565b505b5050509250929050565b611fa5612fa5565b7f000000000000000000000000000000000000000000000000000000000000000073ffffffffffffffffffffffffffffffffffffffff1663ddc28c586040518060a001604052808863ffffffff168152602001612001896119a8565b8152602001878152602001868152602001851515815250306040518363ffffffff1660e01b81526004016120369291906147ca565b6040805180830381865afa158015612050573d5f5f3e3d5ffd5b505050506040513d601f19601f820116820180604052508101906120749190614845565b9050949350505050565b5f5f5f9054906101000a900473ffffffffffffffffffffffffffffffffffffffff169050815f5f6101000a81548173ffffffffffffffffffffffffffffffffffffffff021916908373ffffffffffffffffffffffffffffffffffffffff1602179055508173ffffffffffffffffffffffffffffffffffffffff168173ffffffffffffffffffffffffffffffffffffffff167f8be0079c531659141344cd1fd0a4f28419497f9722a3daafe3b4186f6b6457e060405160405180910390a35050565b5f5f90505b815181101561221c576121748282815181106121635761216261428d565b5b602002602001015160400151612257565b8181815181106121875761218661428d565b5b60200260200101516040015160035f8484815181106121a9576121a861428d565b5b60200260200101515f015163ffffffff1663ffffffff1681526020019081526020015f205f8484815181106121e1576121e061428d565b5b60200260200101516020015161ffff1661ffff1681526020019081526020015f20908161220e9190614a07565b508080600101915050612144565b507fbe4864a8e820971c0247f5992e2da559595f7bf076a21cb5928d443d2a13b6748160405161224c9190614bed565b60405180910390a150565b5f60028201519050600361ffff168161ffff16146122ac57816040517f9a6d49cd0000000000000000000000000000000000000000000000000000000081526004016122a39190613905565b60405180910390fd5b5050565b6122b8612fbd565b6122c0612f74565b5f5f6122e733886040013589606001358a5f0160208101906122e29190613aee565b612aa6565b915091505f5f6122f78984611e0c565b91509150612329895f0160208101906123109190613aee565b83838b8036038101906123239190614c5a565b8b612ace565b955060405180604001604052808581526020018481525094503373ffffffffffffffffffffffffffffffffffffffff16865f01517f85496b760a4b7f8d66384b9df21b381f5d1b1e79f229a47aaf4c232edc2fe59a8b5f0160208101906123909190613aee565b87876040516123a193929190614c85565b60405180910390a350505050935093915050565b6123c487878787878787611a19565b50505050505050565b5f73ffffffffffffffffffffffffffffffffffffffff168473ffffffffffffffffffffffffffffffffffffffff160361243d575f6040517fe602df0500000000000000000000000000000000000000000000000000000000815260040161243491906133fd565b60405180910390fd5b5f73ffffffffffffffffffffffffffffffffffffffff168373ffffffffffffffffffffffffffffffffffffffff16036124ad575f6040517f94280d620000000000000000000000000000000000000000000000000000000081526004016124a491906133fd565b60405180910390fd5b8160065f8673ffffffffffffffffffffffffffffffffffffffff1673ffffffffffffffffffffffffffffffffffffffff1681526020019081526020015f205f8573ffffffffffffffffffffffffffffffffffffffff1673ffffffffffffffffffffffffffffffffffffffff1681526020019081526020015f20819055508015612596578273ffffffffffffffffffffffffffffffffffffffff168473ffffffffffffffffffffffffffffffffffffffff167f8c5be1e5ebec7d5bd14f71427d1e84f3dd0314c0f7b2291e5b200ac8c7c3b9258460405161258d919061366d565b60405180910390a35b50505050565b5f7f00000000000000000000000000000000000000000000000000000000000000007f0000000000000000000000000000000000000000000000000000000000000000836125ea9190614d14565b6125f49190614d44565b9050919050565b5f82825f90602060ff169261261293929190614182565b9061261d9190614d8f565b905092915050565b5f815f1c9050919050565b5f8282602060ff1690602860ff169261264b93929190614182565b906126569190614e18565b60c01c905092915050565b5f7f00000000000000000000000000000000000000000000000000000000000000008267ffffffffffffffff166126989190614d44565b9050919050565b5f5f73ffffffffffffffffffffffffffffffffffffffff168473ffffffffffffffffffffffffffffffffffffffff16036126d95761dead93505b6126e38484612be4565b8290509392505050565b5f602860ff168383905011905092915050565b60608282602860ff1690809261271893929190614182565b8080601f0160208091040260200160405190810160405280939291908181526020018383808284375f81840152601f19601f82011690508083019250505050505050905092915050565b60608484848460405160200161277b9493929190614efe565b6040516020818303038152906040529050949350505050565b5f73ffffffffffffffffffffffffffffffffffffffff168373ffffffffffffffffffffffffffffffffffffffff16036127e4578060075f8282546127d89190614f47565b925050819055506128b4565b5f60055f8573ffffffffffffffffffffffffffffffffffffffff1673ffffffffffffffffffffffffffffffffffffffff1681526020019081526020015f205490508181101561286e578381836040517fe450d38c00000000000000000000000000000000000000000000000000000000815260040161286593929190614650565b60405180910390fd5b81810360055f8673ffffffffffffffffffffffffffffffffffffffff1673ffffffffffffffffffffffffffffffffffffffff1681526020019081526020015f2081905550505b5f73ffffffffffffffffffffffffffffffffffffffff168273ffffffffffffffffffffffffffffffffffffffff16036128fb578060075f8282540392505081905550612946565b8060055f8473ffffffffffffffffffffffffffffffffffffffff1673ffffffffffffffffffffffffffffffffffffffff1681526020019081526020015f205f82825401925050819055505b8173ffffffffffffffffffffffffffffffffffffffff168373ffffffffffffffffffffffffffffffffffffffff167fddf252ad1be2c89b69c2b068fc378daa952ba7f163c4a11628f55a4df523b3ef836040516129a3919061366d565b60405180910390a3505050565b5f5f7f0000000000000000000000000000000000000000000000000000000000000000836129de9190614d14565b905067ffffffffffffffff8016811115612a2f57806040517fe2ce9413000000000000000000000000000000000000000000000000000000008152600401612a26919061366d565b60405180910390fd5b80915050919050565b60605f5f835111905080612a6d578484604051602001612a59929190614f9a565b604051602081830303815290604052612a9c565b8484612a7833612c63565b85604051602001612a8c9493929190614fc5565b6040516020818303038152906040525b9150935093915050565b5f5f612ab3858585611949565b8092508193505050612ac58683612c84565b94509492505050565b612ad6612fbd565b5f612ae3845f0151612d03565b90505f84602001511115612aff57612afe8460200151612d50565b5b7f000000000000000000000000000000000000000000000000000000000000000073ffffffffffffffffffffffffffffffffffffffff16632637a450826040518060a001604052808b63ffffffff168152602001612b5c8c6119a8565b81526020018a81526020018981526020015f8960200151111515815250866040518463ffffffff1660e01b8152600401612b979291906147ca565b60806040518083038185885af1158015612bb3573d5f5f3e3d5ffd5b50505050506040513d601f19601f82011682018060405250810190612bd89190615097565b91505095945050505050565b5f73ffffffffffffffffffffffffffffffffffffffff168273ffffffffffffffffffffffffffffffffffffffff1603612c54575f6040517fec442f05000000000000000000000000000000000000000000000000000000008152600401612c4b91906133fd565b60405180910390fd5b612c5f5f8383612794565b5050565b5f8173ffffffffffffffffffffffffffffffffffffffff165f1b9050919050565b5f73ffffffffffffffffffffffffffffffffffffffff168273ffffffffffffffffffffffffffffffffffffffff1603612cf4575f6040517f96c6fd1e000000000000000000000000000000000000000000000000000000008152600401612ceb91906133fd565b60405180910390fd5b612cff825f83612794565b5050565b5f813414612d4857346040517f9f704120000000000000000000000000000000000000000000000000000000008152600401612d3f919061366d565b60405180910390fd5b819050919050565b5f7f000000000000000000000000000000000000000000000000000000000000000073ffffffffffffffffffffffffffffffffffffffff1663e4fe1d946040518163ffffffff1660e01b8152600401602060405180830381865afa158015612dba573d5f5f3e3d5ffd5b505050506040513d601f19601f82011682018060405250810190612dde9190613e68565b90505f73ffffffffffffffffffffffffffffffffffffffff168173ffffffffffffffffffffffffffffffffffffffff1603612e45576040517f5373352a00000000000000000000000000000000000000000000000000000000815260040160405180910390fd5b612e92337f0000000000000000000000000000000000000000000000000000000000000000848473ffffffffffffffffffffffffffffffffffffffff16612e96909392919063ffffffff16565b5050565b612ea4848484846001612eeb565b612ee557836040517f5274afe7000000000000000000000000000000000000000000000000000000008152600401612edc91906133fd565b60405180910390fd5b50505050565b5f5f6323b872dd60e01b9050604051815f525f1960601c87166004525f1960601c86166024528460445260205f60645f5f8c5af1925060015f51148316612f49578383151615612f3d573d5f823e3d81fd5b5f883b113d1516831692505b806040525f606052505095945050505050565b60405180604001604052805f81526020015f81525090565b60405180604001604052805f81526020015f81525090565b60405180604001604052805f8152602001606081525090565b60405180604001604052805f81526020015f81525090565b60405180606001604052805f81526020015f67ffffffffffffffff168152602001612fe6612fa5565b81525090565b5f81519050919050565b5f82825260208201905092915050565b8281835e5f83830152505050565b5f601f19601f8301169050919050565b5f61302e82612fec565b6130388185612ff6565b9350613048818560208601613006565b61305181613014565b840191505092915050565b5f6020820190508181035f8301526130748184613024565b905092915050565b5f604051905090565b5f5ffd5b5f5ffd5b5f73ffffffffffffffffffffffffffffffffffffffff82169050919050565b5f6130b68261308d565b9050919050565b6130c6816130ac565b81146130d0575f5ffd5b50565b5f813590506130e1816130bd565b92915050565b5f819050919050565b6130f9816130e7565b8114613103575f5ffd5b50565b5f81359050613114816130f0565b92915050565b5f5f604083850312156131305761312f613085565b5b5f61313d858286016130d3565b925050602061314e85828601613106565b9150509250929050565b5f8115159050919050565b61316c81613158565b82525050565b5f6020820190506131855f830184613163565b92915050565b5f5ffd5b5f60e082840312156131a4576131a361318b565b5b81905092915050565b5f602082840312156131c2576131c1613085565b5b5f82013567ffffffffffffffff8111156131df576131de613089565b5b6131eb8482850161318f565b91505092915050565b6131fd816130e7565b82525050565b604082015f8201516132175f8501826131f4565b50602082015161322a60208501826131f4565b50505050565b5f81519050919050565b5f82825260208201905092915050565b5f819050602082019050919050565b5f819050919050565b61326b81613259565b82525050565b5f82825260208201905092915050565b5f61328b82612fec565b6132958185613271565b93506132a5818560208601613006565b6132ae81613014565b840191505092915050565b5f604083015f8301516132ce5f860182613262565b50602083015184820360208601526132e68282613281565b9150508091505092915050565b5f6132fe83836132b9565b905092915050565b5f602082019050919050565b5f61331c82613230565b613326818561323a565b9350836020820285016133388561324a565b805f5b85811015613373578484038952815161335485826132f3565b945061335f83613306565b925060208a0199505060018101905061333b565b50829750879550505050505092915050565b604082015f8201516133995f8501826131f4565b5060208201516133ac60208501826131f4565b50505050565b5f60a0820190506133c55f830186613203565b81810360408301526133d78185613312565b90506133e66060830184613385565b949350505050565b6133f7816130ac565b82525050565b5f6020820190506134105f8301846133ee565b92915050565b5f6060828403121561342b5761342a61318b565b5b81905092915050565b5f819050919050565b61344681613434565b8114613450575f5ffd5b50565b5f813590506134618161343d565b92915050565b5f5ffd5b5f5ffd5b5f5ffd5b5f5f83601f84011261348857613487613467565b5b8235905067ffffffffffffffff8111156134a5576134a461346b565b5b6020830191508360018202830111156134c1576134c061346f565b5b9250929050565b5f5f5f5f5f5f5f60e0888a0312156134e3576134e2613085565b5b5f6134f08a828b01613416565b97505060606135018a828b01613453565b965050608088013567ffffffffffffffff81111561352257613521613089565b5b61352e8a828b01613473565b955095505060a06135418a828b016130d3565b93505060c088013567ffffffffffffffff81111561356257613561613089565b5b61356e8a828b01613473565b925092505092959891949750929550565b5f61ffff82169050919050565b6135958161357f565b82525050565b5f6020820190506135ae5f83018461358c565b92915050565b5f7fffffffff0000000000000000000000000000000000000000000000000000000082169050919050565b6135e8816135b4565b82525050565b5f67ffffffffffffffff82169050919050565b61360a816135ee565b82525050565b5f6040820190506136235f8301856135df565b6136306020830184613601565b9392505050565b5f60408201905061364a5f830185613601565b6136576020830184613601565b9392505050565b613667816130e7565b82525050565b5f6020820190506136805f83018461365e565b92915050565b5f5f5f6060848603121561369d5761369c613085565b5b5f6136aa868287016130d3565b93505060206136bb868287016130d3565b92505060406136cc86828701613106565b9150509250925092565b5f60ff82169050919050565b6136eb816136d6565b82525050565b5f6020820190506137045f8301846136e2565b92915050565b5f63ffffffff82169050919050565b6137228161370a565b811461372c575f5ffd5b50565b5f8135905061373d81613719565b92915050565b5f5f6040838503121561375957613758613085565b5b5f6137668582860161372f565b925050602061377785828601613453565b9150509250929050565b61378a81613158565b8114613794575f5ffd5b50565b5f813590506137a581613781565b92915050565b5f5f604083850312156137c1576137c0613085565b5b5f83013567ffffffffffffffff8111156137de576137dd613089565b5b6137ea8582860161318f565b92505060206137fb85828601613797565b9150509250929050565b604082015f8201516138195f8501826131f4565b50602082015161382c60208501826131f4565b50505050565b5f6040820190506138455f830184613805565b92915050565b6138548161357f565b811461385e575f5ffd5b50565b5f8135905061386f8161384b565b92915050565b5f5f6040838503121561388b5761388a613085565b5b5f6138988582860161372f565b92505060206138a985828601613861565b9150509250929050565b5f81519050919050565b5f82825260208201905092915050565b5f6138d7826138b3565b6138e181856138bd565b93506138f1818560208601613006565b6138fa81613014565b840191505092915050565b5f6020820190508181035f83015261391d81846138cd565b905092915050565b5f819050919050565b5f61394861394361393e8461308d565b613925565b61308d565b9050919050565b5f6139598261392e565b9050919050565b5f61396a8261394f565b9050919050565b61397a81613960565b82525050565b5f6020820190506139935f830184613971565b92915050565b5f602082840312156139ae576139ad613085565b5b5f6139bb848285016130d3565b91505092915050565b5f6020820190506139d75f830184613601565b92915050565b5f5f5f5f60a085870312156139f5576139f4613085565b5b5f613a0287828801613416565b945050606085013567ffffffffffffffff811115613a2357613a22613089565b5b613a2f87828801613473565b93509350506080613a42878288016130d3565b91505092959194509250565b5f5f83601f840112613a6357613a62613467565b5b8235905067ffffffffffffffff811115613a8057613a7f61346b565b5b602083019150836020820283011115613a9c57613a9b61346f565b5b9250929050565b5f5f60208385031215613ab957613ab8613085565b5b5f83013567ffffffffffffffff811115613ad657613ad5613089565b5b613ae285828601613a4e565b92509250509250929050565b5f60208284031215613b0357613b02613085565b5b5f613b108482850161372f565b91505092915050565b613b2281613434565b82525050565b5f602082019050613b3b5f830184613b19565b92915050565b5f5f5f5f60608587031215613b5957613b58613085565b5b5f613b668782880161372f565b9450506020613b7787828801613861565b935050604085013567ffffffffffffffff811115613b9857613b97613089565b5b613ba487828801613473565b925092505092959194509250565b5f5f83601f840112613bc757613bc6613467565b5b8235905067ffffffffffffffff811115613be457613be361346b565b5b602083019150836020820283011115613c0057613bff61346f565b5b9250929050565b5f5f60208385031215613c1d57613c1c613085565b5b5f83013567ffffffffffffffff811115613c3a57613c39613089565b5b613c4685828601613bb2565b92509250509250929050565b5f60408284031215613c6757613c6661318b565b5b81905092915050565b5f5f5f60808486031215613c8757613c86613085565b5b5f84013567ffffffffffffffff811115613ca457613ca3613089565b5b613cb08682870161318f565b9350506020613cc186828701613c52565b9250506060613cd2868287016130d3565b9150509250925092565b613ce581613434565b82525050565b613cf4816135ee565b82525050565b604082015f820151613d0e5f8501826131f4565b506020820151613d2160208501826131f4565b50505050565b608082015f820151613d3b5f850182613cdc565b506020820151613d4e6020850182613ceb565b506040820151613d616040850182613cfa565b50505050565b5f60c082019050613d7a5f830185613d27565b613d876080830184613385565b9392505050565b5f5f60408385031215613da457613da3613085565b5b5f613db1858286016130d3565b9250506020613dc2858286016130d3565b9150509250929050565b5f60608284031215613de157613de0613085565b5b5f613dee84828501613416565b91505092915050565b7f4e487b71000000000000000000000000000000000000000000000000000000005f52602260045260245ffd5b5f6002820490506001821680613e3b57607f821691505b602082108103613e4e57613e4d613df7565b5b50919050565b5f81519050613e62816130bd565b92915050565b5f60208284031215613e7d57613e7c613085565b5b5f613e8a84828501613e54565b91505092915050565b5f81519050613ea1816130f0565b92915050565b5f60208284031215613ebc57613ebb613085565b5b5f613ec984828501613e93565b91505092915050565b7f4e487b71000000000000000000000000000000000000000000000000000000005f52604160045260245ffd5b613f088161370a565b82525050565b5f604082019050613f215f830185613eff565b613f2e6020830184613b19565b9392505050565b613f3e82613014565b810181811067ffffffffffffffff82111715613f5d57613f5c613ed2565b5b80604052505050565b5f613f6f61307c565b9050613f7b8282613f35565b919050565b5f67ffffffffffffffff821115613f9a57613f99613ed2565b5b602082029050602081019050919050565b5f5ffd5b5f5ffd5b5f5ffd5b5f67ffffffffffffffff821115613fd157613fd0613ed2565b5b613fda82613014565b9050602081019050919050565b828183375f83830152505050565b5f61400761400284613fb7565b613f66565b90508281526020810184848401111561402357614022613fb3565b5b61402e848285613fe7565b509392505050565b5f82601f83011261404a57614049613467565b5b813561405a848260208601613ff5565b91505092915050565b5f6060828403121561407857614077613fab565b5b6140826060613f66565b90505f6140918482850161372f565b5f8301525060206140a484828501613861565b602083015250604082013567ffffffffffffffff8111156140c8576140c7613faf565b5b6140d484828501614036565b60408301525092915050565b5f6140f26140ed84613f80565b613f66565b905080838252602082019050602084028301858111156141155761411461346f565b5b835b8181101561415c57803567ffffffffffffffff81111561413a57614139613467565b5b8086016141478982614063565b85526020850194505050602081019050614117565b5050509392505050565b5f6141723684846140e0565b905092915050565b5f5ffd5b5f5ffd5b5f5f858511156141955761419461417a565b5b838611156141a6576141a561417e565b5b6001850283019150848603905094509492505050565b5f81905092915050565b5f6141d0826138b3565b6141da81856141bc565b93506141ea818560208601613006565b80840191505092915050565b5f61420183856141bc565b935061420e838584613fe7565b82840190509392505050565b5f61422582866141c6565b91506142328284866141f6565b9150819050949350505050565b5f61424a83856138bd565b9350614257838584613fe7565b61426083613014565b840190509392505050565b5f6020820190508181035f83015261428481848661423f565b90509392505050565b7f4e487b71000000000000000000000000000000000000000000000000000000005f52603260045260245ffd5b5f5ffd5b5f5ffd5b5f5ffd5b5f82356001610140038336030381126142e2576142e16142ba565b5b80830191505092915050565b5f5f8335600160200384360303811261430a576143096142ba565b5b80840192508235915067ffffffffffffffff82111561432c5761432b6142be565b5b602083019250600182023603831315614348576143476142c2565b5b509250929050565b5f61435e602084018461372f565b905092915050565b61436f8161370a565b82525050565b5f6143836020840184613453565b905092915050565b614394816135ee565b811461439e575f5ffd5b50565b5f813590506143af8161438b565b92915050565b5f6143c360208401846143a1565b905092915050565b606082016143db5f830183614350565b6143e75f850182614366565b506143f56020830183614375565b6144026020850182613cdc565b5061441060408301836143b5565b61441d6040850182613ceb565b50505050565b5f60e0820190506144365f83018a6143cb565b6144436060830189613b19565b818103608083015261445681878961423f565b905061446560a08301866133ee565b81810360c083015261447881848661423f565b905098975050505050505050565b5f61449861449384613fb7565b613f66565b9050828152602081018484840111156144b4576144b3613fb3565b5b6144bf848285613006565b509392505050565b5f82601f8301126144db576144da613467565b5b81516144eb848260208601614486565b91505092915050565b5f6020828403121561450957614508613085565b5b5f82015167ffffffffffffffff81111561452657614525613089565b5b614532848285016144c7565b91505092915050565b5f60408201905061454e5f83018561365e565b61455b602083018461365e565b9392505050565b5f6020820190506145755f830184613eff565b92915050565b5f602082840312156145905761458f613085565b5b5f61459d848285016143a1565b91505092915050565b5f819050919050565b5f6145c96145c46145bf846145a6565b613925565b61357f565b9050919050565b6145d9816145af565b82525050565b5f6080820190506145f25f8301876133ee565b6145ff6020830186613b19565b61460c60408301856145d0565b818103606083015261461e81846138cd565b905095945050505050565b5f60408201905061463c5f830185613eff565b614649602083018461365e565b9392505050565b5f6060820190506146635f8301866133ee565b614670602083018561365e565b61467d604083018461365e565b949350505050565b5f6040820190508181035f83015261469d81856138cd565b905081810360208301526146b181846138cd565b90509392505050565b5f815190506146c881613781565b92915050565b5f602082840312156146e3576146e2613085565b5b5f6146f0848285016146ba565b91505092915050565b5f82825260208201905092915050565b5f614713826138b3565b61471d81856146f9565b935061472d818560208601613006565b61473681613014565b840191505092915050565b61474a81613158565b82525050565b5f60a083015f8301516147655f860182614366565b5060208301516147786020860182613cdc565b50604083015184820360408601526147908282614709565b915050606083015184820360608601526147aa8282614709565b91505060808301516147bf6080860182614741565b508091505092915050565b5f6040820190508181035f8301526147e28185614750565b90506147f160208301846133ee565b9392505050565b5f6040828403121561480d5761480c613fab565b5b6148176040613f66565b90505f61482684828501613e93565b5f83015250602061483984828501613e93565b60208301525092915050565b5f6040828403121561485a57614859613085565b5b5f614867848285016147f8565b91505092915050565b5f819050815f5260205f209050919050565b5f6020601f8301049050919050565b5f82821b905092915050565b5f600883026148cc7fffffffffffffffffffffffffffffffffffffffffffffffffffffffffffffffff82614891565b6148d68683614891565b95508019841693508086168417925050509392505050565b5f6149086149036148fe846130e7565b613925565b6130e7565b9050919050565b5f819050919050565b614921836148ee565b61493561492d8261490f565b84845461489d565b825550505050565b5f5f905090565b61494c61493d565b614957818484614918565b505050565b5b8181101561497a5761496f5f82614944565b60018101905061495d565b5050565b601f8211156149bf5761499081614870565b61499984614882565b810160208510156149a8578190505b6149bc6149b485614882565b83018261495c565b50505b505050565b5f82821c905092915050565b5f6149df5f19846008026149c4565b1980831691505092915050565b5f6149f783836149d0565b9150826002028217905092915050565b614a10826138b3565b67ffffffffffffffff811115614a2957614a28613ed2565b5b614a338254613e24565b614a3e82828561497e565b5f60209050601f831160018114614a6f575f8415614a5d578287015190505b614a6785826149ec565b865550614ace565b601f198416614a7d86614870565b5f5b82811015614aa457848901518255600182019150602085019450602081019050614a7f565b86831015614ac15784890151614abd601f8916826149d0565b8355505b6001600288020188555050505b505050505050565b5f81519050919050565b5f82825260208201905092915050565b5f819050602082019050919050565b614b088161357f565b82525050565b5f606083015f830151614b235f860182614366565b506020830151614b366020860182614aff565b5060408301518482036040860152614b4e8282614709565b9150508091505092915050565b5f614b668383614b0e565b905092915050565b5f602082019050919050565b5f614b8482614ad6565b614b8e8185614ae0565b935083602082028501614ba085614af0565b805f5b85811015614bdb5784840389528151614bbc8582614b5b565b9450614bc783614b6e565b925060208a01995050600181019050614ba3565b50829750879550505050505092915050565b5f6020820190508181035f830152614c058184614b7a565b905092915050565b5f60408284031215614c2257614c21613fab565b5b614c2c6040613f66565b90505f614c3b84828501613106565b5f830152506020614c4e84828501613106565b60208301525092915050565b5f60408284031215614c6f57614c6e613085565b5b5f614c7c84828501614c0d565b91505092915050565b5f606082019050614c985f830186613eff565b614ca5602083018561365e565b614cb2604083018461365e565b949350505050565b7f4e487b71000000000000000000000000000000000000000000000000000000005f52601260045260245ffd5b7f4e487b71000000000000000000000000000000000000000000000000000000005f52601160045260245ffd5b5f614d1e826130e7565b9150614d29836130e7565b925082614d3957614d38614cba565b5b828204905092915050565b5f614d4e826130e7565b9150614d59836130e7565b9250828202614d67816130e7565b91508282048414831517614d7e57614d7d614ce7565b5b5092915050565b5f82905092915050565b5f614d9a8383614d85565b82614da58135613434565b92506020821015614de557614de07fffffffffffffffffffffffffffffffffffffffffffffffffffffffffffffffff83602003600802614891565b831692505b505092915050565b5f7fffffffffffffffff00000000000000000000000000000000000000000000000082169050919050565b5f614e238383614d85565b82614e2e8135614ded565b92506008821015614e6e57614e697fffffffffffffffff00000000000000000000000000000000000000000000000083600803600802614891565b831692505b505092915050565b5f8160c01b9050919050565b5f614e8c82614e76565b9050919050565b614ea4614e9f826135ee565b614e82565b82525050565b5f8160e01b9050919050565b5f614ec082614eaa565b9050919050565b614ed8614ed38261370a565b614eb6565b82525050565b5f819050919050565b614ef8614ef3826130e7565b614ede565b82525050565b5f614f098287614e93565b600882019150614f198286614ec7565b600482019150614f298285614ee7565b602082019150614f3982846141c6565b915081905095945050505050565b5f614f51826130e7565b9150614f5c836130e7565b9250828201905080821115614f7457614f73614ce7565b5b92915050565b5f819050919050565b614f94614f8f82613434565b614f7a565b82525050565b5f614fa58285614f83565b602082019150614fb58284614e93565b6008820191508190509392505050565b5f614fd08287614f83565b602082019150614fe08286614e93565b600882019150614ff08285614f83565b60208201915061500082846141c6565b915081905095945050505050565b5f8151905061501c8161343d565b92915050565b5f815190506150308161438b565b92915050565b5f6080828403121561504b5761504a613fab565b5b6150556060613f66565b90505f6150648482850161500e565b5f83015250602061507784828501615022565b602083015250604061508b848285016147f8565b60408301525092915050565b5f608082840312156150ac576150ab613085565b5b5f6150b984828501615036565b9150509291505056fea26469706673582212209059e39bcd88346ae9f1e19707a4514d64cfc11de68a2d79043506509df7993a64736f6c634300081c0033","linkReferences":{}},"methodIdentifiers":{"INITIAL_SUPPLY()":"2ff2e9dc","SEND()":"1f5e1334","SEND_AND_CALL()":"134d4f25","allowInitializePath((uint32,bytes32,uint64))":"ff7bd03d","allowance(address,address)":"dd62ed3e","approvalRequired()":"9f68b964","approve(address,uint256)":"095ea7b3","balanceOf(address)":"70a08231","combineOptions(uint32,uint16,bytes)":"bc70b354","decimalConversionRate()":"963efcaa","decimals()":"313ce567","endpoint()":"5e280f11","enforcedOptions(uint32,uint16)":"5535d461","isComposeMsgSender((uint32,bytes32,uint64),bytes,address)":"82413eac","isPeer(uint32,bytes32)":"5a0dfe4d","lzReceive((uint32,bytes32,uint64),bytes32,bytes,address,bytes)":"13137d65","lzReceiveAndRevert(((uint32,bytes32,uint64),uint32,address,bytes32,uint256,address,bytes,bytes)[])":"bd815db0","lzReceiveSimulate((uint32,bytes32,uint64),bytes32,bytes,address,bytes)":"d045a0dc","msgInspector()":"111ecdad","name()":"06fdde03","nextNonce(uint32,bytes32)":"7d25a05e","oApp()":"52ae2879","oAppVersion()":"17442b70","oftVersion()":"156a0d0f","owner()":"8da5cb5b","peers(uint32)":"bb0b6a53","preCrime()":"b731ea0a","quoteOFT((uint32,bytes32,uint256,uint256,bytes,bytes,bytes))":"0d35b415","quoteSend((uint32,bytes32,uint256,uint256,bytes,bytes,bytes),bool)":"3b6f743b","renounceOwnership()":"715018a6","send((uint32,bytes32,uint256,uint256,bytes,bytes,bytes),(uint256,uint256),address)":"c7c7f5b3","setDelegate(address)":"ca5eb5e1","setEnforcedOptions((uint32,uint16,bytes)[])":"b98bd070","setMsgInspector(address)":"6fc1b31e","setPeer(uint32,bytes32)":"3400288b","setPreCrime(address)":"d4243885","sharedDecimals()":"857749b0","symbol()":"95d89b41","token()":"fc0c546a","totalSupply()":"18160ddd","transfer(address,uint256)":"a9059cbb","transferFrom(address,address,uint256)":"23b872dd","transferOwnership(address)":"f2fde38b"},"id":55}