{"abi":[{"type":"constructor","inputs":[{"name":"_lzEndpoint","type":"address","internalType":"address"},{"name":"_owner","type":"address","internalType":"address"}],"stateMutability":"nonpayable"},{"type":"function","name":"INITIAL_SUPPLY","inputs":[],"outputs":[{"name":"","type":"uint256","internalType":"uint256"}],"stateMutability":"view"},{"type":"function","name":"SEND","inputs":[],"outputs":[{"name":"","type":"uint16","internalType":"uint16"}],"stateMutability":"view"},{"type":"function","name":"SEND_AND_CALL","inputs":[],"outputs":[{"name":"","type":"uint16","internalType":"uint16"}],"stateMutability":"view"},{"type":"function","name":"allowInitializePath","inputs":[{"name":"origin","type":"tuple","internalType":"struct Origin","components":[{"name":"srcEid","type":"uint32","internalType":"uint32"},{"name":"sender","type":"bytes32","internalType":"bytes32"},{"name":"nonce","type":"uint64","internalType":"uint64"}]}],"outputs":[{"name":"","type":"bool","internalType":"bool"}],"stateMutability":"view"},{"type":"function","name":"allowance","inputs":[{"name":"owner","type":"address","internalType":"address"},{"name":"spender","type":"address","internalType":"address"}],"outputs":[{"name":"","type":"uint256","internalType":"uint256"}],"stateMutability":"view"},{"type":"function","name":"approvalRequired","inputs":[],"outputs":[{"name":"","type":"bool","internalType":"bool"}],"stateMutability":"pure"},{"type":"function","name":"approve","inputs":[{"name":"spender","type":"address","internalType":"address"},{"name":"value","type":"uint256","internalType":"uint256"}],"outputs":[{"name":"","type":"bool","internalType":"bool"}],"stateMutability":"nonpayable"},{"type":"function","name":"balanceOf","inputs":[{"name":"account","type":"address","internalType":"address"}],"outputs":[{"name":"","type":"uint256","internalType":"uint256"}],"stateMutability":"view"},{"type":"function","name":"combineOptions","inputs":[{"name":"_eid","type":"uint32","internalType":"uint32"},{"name":"_msgType","type":"uint16","internalType":"uint16"},{"name":"_extraOptions","type":"bytes","internalType":"bytes"}],"outputs":[{"name":"","type":"bytes","internalType":"bytes"}],"stateMutability":"view"},{"type":"function","name":"decimalConversionRate","inputs":[],"outputs":[{"name":"","type":"uint256","internalType":"uint256"}],"stateMutability":"view"},{"type":"function","name":"decimals","inputs":[],"outputs":[{"name":"","type":"uint8","internalType":"uint8"}],"stateMutability":"view"},{"type":"function","name":"endpoint","inputs":[],"outputs":[{"name":"","type":"address","internalType":"contract ILayerZeroEndpointV2"}],"stateMutability":"view"},{"type":"function","name":"enforcedOptions","inputs":[{"name":"eid","type":"uint32","internalType":"uint32"},{"name":"msgType","type":"uint16","internalType":"uint16"}],"outputs":[{"name":"enforcedOption","type":"bytes","internalType":"bytes"}],"stateMutability":"view"},{"type":"function","name":"isComposeMsgSender","inputs":[{"name":"","type":"tuple","internalType":"struct Origin","components":[{"name":"srcEid","type":"uint32","internalType":"uint32"},{"name":"sender","type":"bytes32","internalType":"bytes32"},{"name":"nonce","type":"uint64","internalType":"uint64"}]},{"name":"","type":"bytes","internalType":"bytes"},{"name":"_sender","type":"address","internalType":"address"}],"outputs":[{"name":"","type":"bool","internalType":"bool"}],"stateMutability":"view"},{"type":"function","name":"isPeer","inputs":[{"name":"_eid","type":"uint32","internalType":"uint32"},{"name":"_peer","type":"bytes32","internalType":"bytes32"}],"outputs":[{"name":"","type":"bool","internalType":"bool"}],"stateMutability":"view"},{"type":"function","name":"lzReceive","inputs":[{"name":"_origin","type":"tuple","internalType":"struct Origin","components":[{"name":"srcEid","type":"uint32","internalType":"uint32"},{"name":"sender","type":"bytes32","internalType":"bytes32"},{"name":"nonce","type":"uint64","internalType":"uint64"}]},{"name":"_guid","type":"bytes32","internalType":"bytes32"},{"name":"_message","type":"bytes","internalType":"bytes"},{"name":"_executor","type":"address","internalType":"address"},{"name":"_extraData","type":"bytes","internalType":"bytes"}],"outputs":[],"stateMutability":"payable"},{"type":"function","name":"lzReceiveAndRevert","inputs":[{"name":"_packets","type":"tuple[]","internalType":"struct InboundPacket[]","components":[{"name":"origin","type":"tuple","internalType":"struct Origin","components":[{"name":"srcEid","type":"uint32","internalType":"uint32"},{"name":"sender","type":"bytes32","internalType":"bytes32"},{"name":"nonce","type":"uint64","internalType":"uint64"}]},{"name":"dstEid","type":"uint32","internalType":"uint32"},{"name":"receiver","type":"address","internalType":"address"},{"name":"guid","type":"bytes32","internalType":"bytes32"},{"name":"value","type":"uint256","internalType":"uint256"},{"name":"executor","type":"address","internalType":"address"},{"name":"message","type":"bytes","internalType":"bytes"},{"name":"extraData","type":"bytes","internalType":"bytes"}]}],"outputs":[],"stateMutability":"payable"},{"type":"function","name":"lzReceiveSimulate","inputs":[{"name":"_origin","type":"tuple","internalType":"struct Origin","components":[{"name":"srcEid","type":"uint32","internalType":"uint32"},{"name":"sender","type":"bytes32","internalType":"bytes32"},{"name":"nonce","type":"uint64","internalType":"uint64"}]},{"name":"_guid","type":"bytes32","internalType":"bytes32"},{"name":"_message","type":"bytes","internalType":"bytes"},{"name":"_executor","type":"address","internalType":"address"},{"name":"_extraData","type":"bytes","internalType":"bytes"}],"outputs":[],"stateMutability":"payable"},{"type":"function","name":"msgInspector","inputs":[],"outputs":[{"name":"","type":"address","internalType":"address"}],"stateMutability":"view"},{"type":"function","name":"name","inputs":[],"outputs":[{"name":"","type":"string","internalType":"string"}],"stateMutability":"view"},{"type":"function","name":"nextNonce","inputs":[{"name":"","type":"uint32","internalType":"uint32"},{"name":"","type":"bytes32","internalType":"bytes32"}],"outputs":[{"name":"nonce","type":"uint64","internalType":"uint64"}],"stateMutability":"view"},{"type":"function","name":"oApp","inputs":[],"outputs":[{"name":"","type":"address","internalType":"address"}],"stateMutability":"view"},{"type":"function","name":"oAppVersion","inputs":[],"outputs":[{"name":"senderVersion","type":"uint64","internalType":"uint64"},{"name":"receiverVersion","type":"uint64","internalType":"uint64"}],"stateMutability":"pure"},{"type":"function","name":"oftVersion","inputs":[],"outputs":[{"name":"interfaceId","type":"bytes4","internalType":"bytes4"},{"name":"version","type":"uint64","internalType":"uint64"}],"stateMutability":"pure"},{"type":"function","name":"owner","inputs":[],"outputs":[{"name":"","type":"address","internalType":"address"}],"stateMutability":"view"},{"type":"function","name":"peers","inputs":[{"name":"eid","type":"uint32","internalType":"uint32"}],"outputs":[{"name":"peer","type":"bytes32","internalType":"bytes32"}],"stateMutability":"view"},{"type":"function","name":"preCrime","inputs":[],"outputs":[{"name":"","type":"address","internalType":"address"}],"stateMutability":"view"},{"type":"function","name":"quoteOFT","inputs":[{"name":"_sendParam","type":"tuple","internalType":"struct SendParam","components":[{"name":"dstEid","type":"uint32","internalType":"uint32"},{"name":"to","type":"bytes32","internalType":"bytes32"},{"name":"amountLD","type":"uint256","internalType":"uint256"},{"name":"minAmountLD","type":"uint256","internalType":"uint256"},{"name":"extraOptions","type":"bytes","internalType":"bytes"},{"name":"composeMsg","type":"bytes","internalType":"bytes"},{"name":"oftCmd","type":"bytes","internalType":"bytes"}]}],"outputs":[{"name":"oftLimit","type":"tuple","internalType":"struct OFTLimit","components":[{"name":"minAmountLD","type":"uint256","internalType":"uint256"},{"name":"maxAmountLD","type":"uint256","internalType":"uint256"}]},{"name":"oftFeeDetails","type":"tuple[]","internalType":"struct OFTFeeDetail[]","components":[{"name":"feeAmountLD","type":"int256","internalType":"int256"},{"name":"description","type":"string","internalType":"string"}]},{"name":"oftReceipt","type":"tuple","internalType":"struct OFTReceipt","components":[{"name":"amountSentLD","type":"uint256","internalType":"uint256"},{"name":"amountReceivedLD","type":"uint256","internalType":"uint256"}]}],"stateMutability":"view"},{"type":"function","name":"quoteSend","inputs":[{"name":"_sendParam","type":"tuple","internalType":"struct SendParam","components":[{"name":"dstEid","type":"uint32","internalType":"uint32"},{"name":"to","type":"bytes32","internalType":"bytes32"},{"name":"amountLD","type":"uint256","internalType":"uint256"},{"name":"minAmountLD","type":"uint256","internalType":"uint256"},{"name":"extraOptions","type":"bytes","internalType":"bytes"},{"name":"composeMsg","type":"bytes","internalType":"bytes"},{"name":"oftCmd","type":"bytes","internalType":"bytes"}]},{"name":"_payInLzToken","type":"bool","internalType":"bool"}],"outputs":[{"name":"msgFee","type":"tuple","internalType":"struct MessagingFee","components":[{"name":"nativeFee","type":"uint256","internalType":"uint256"},{"name":"lzTokenFee","type":"uint256","internalType":"uint256"}]}],"stateMutability":"view"},{"type":"function","name":"renounceOwnership","inputs":[],"outputs":[],"stateMutability":"nonpayable"},{"type":"function","name":"send","inputs":[{"name":"_sendParam","type":"tuple","internalType":"struct SendParam","components":[{"name":"dstEid","type":"uint32","internalType":"uint32"},{"name":"to","type":"bytes32","internalType":"bytes32"},{"name":"amountLD","type":"uint256","internalType":"uint256"},{"name":"minAmountLD","type":"uint256","internalType":"uint256"},{"name":"extraOptions","type":"bytes","internalType":"bytes"},{"name":"composeMsg","type":"bytes","internalType":"bytes"},{"name":"oftCmd","type":"bytes","internalType":"bytes"}]},{"name":"_fee","type":"tuple","internalType":"struct MessagingFee","components":[{"name":"nativeFee","type":"uint256","internalType":"uint256"},{"name":"lzTokenFee","type":"uint256","internalType":"uint256"}]},{"name":"_refundAddress","type":"address","internalType":"address"}],"outputs":[{"name":"msgReceipt","type":"tuple","internalType":"struct MessagingReceipt","components":[{"name":"guid","type":"bytes32","internalType":"bytes32"},{"name":"nonce","type":"uint64","internalType":"uint64"},{"name":"fee","type":"tuple","internalType":"struct MessagingFee","components":[{"name":"nativeFee","type":"uint256","internalType":"uint256"},{"name":"lzTokenFee","type":"uint256","internalType":"uint256"}]}]},{"name":"oftReceipt","type":"tuple","internalType":"struct OFTReceipt","components":[{"name":"amountSentLD","type":"uint256","internalType":"uint256"},{"name":"amountReceivedLD","type":"uint256","internalType":"uint256"}]}],"stateMutability":"payable"},{"type":"function","name":"setDelegate","inputs":[{"name":"_delegate","type":"address","internalType":"address"}],"outputs":[],"stateMutability":"nonpayable"},{"type":"function","name":"setEnforcedOptions","inputs":[{"name":"_enforcedOptions","type":"tuple[]","internalType":"struct EnforcedOptionParam[]","components":[{"name":"eid","type":"uint32","internalType":"uint32"},{"name":"msgType","type":"uint16","internalType":"uint16"},{"name":"options","type":"bytes","internalType":"bytes"}]}],"outputs":[],"stateMutability":"nonpayable"},{"type":"function","name":"setMsgInspector","inputs":[{"name":"_msgInspector","type":"address","internalType":"address"}],"outputs":[],"stateMutability":"nonpayable"},{"type":"function","name":"setPeer","inputs":[{"name":"_eid","type":"uint32","internalType":"uint32"},{"name":"_peer","type":"bytes32","internalType":"bytes32"}],"outputs":[],"stateMutability":"nonpayable"},{"type":"function","name":"setPreCrime","inputs":[{"name":"_preCrime","type":"address","internalType":"address"}],"outputs":[],"stateMutability":"nonpayable"},{"type":"function","name":"sharedDecimals","inputs":[],"outputs":[{"name":"","type":"uint8","internalType":"uint8"}],"stateMutability":"view"},{"type":"function","name":"symbol","inputs":[],"outputs":[{"name":"","type":"string","internalType":"string"}],"stateMutability":"view"},{"type":"function","name":"token","inputs":[],"outputs":[{"name":"","type":"address","internalType":"address"}],"stateMutability":"view"},{"type":"function","name":"totalSupply","inputs":[],"outputs":[{"name":"","type":"uint256","internalType":"uint256"}],"stateMutability":"view"},{"type":"function","name":"transfer","inputs":[{"name":"to","type":"address","internalType":"address"},{"name":"value","type":"uint256","internalType":"uint256"}],"outputs":[{"name":"","type":"bool","internalType":"bool"}],"stateMutability":"nonpayable"},{"type":"function","name":"transferFrom","inputs":[{"name":"from","type":"address","internalType":"address"},{"name":"to","type":"address","internalType":"address"},{"name":"value","type":"uint256","internalType":"uint256"}],"outputs":[{"name":"","type":"bool","internalType":"bool"}],"stateMutability":"nonpayable"},{"type":"function","name":"transferOwnership","inputs":[{"name":"newOwner","type":"address","internalType":"address"}],"outputs":[],"stateMutability":"nonpayable"},{"type":"event","name":"Approval","inputs":[{"name":"owner","type":"address","indexed":true,"internalType":"address"},{"name":"spender","type":"address","indexed":true,"internalType":"address"},{"name":"value","type":"uint256","indexed":false,"internalType":"uint256"}],"anonymous":false},{"type":"event","name":"EnforcedOptionSet","inputs":[{"name":"_enforcedOptions","type":"tuple[]","indexed":false,"internalType":"struct EnforcedOptionParam[]","components":[{"name":"eid","type":"uint32","internalType":"uint32"},{"name":"msgType","type":"uint16","internalType":"uint16"},{"name":"options","type":"bytes","internalType":"bytes"}]}],"anonymous":false},{"type":"event","name":"MsgInspectorSet","inputs":[{"name":"inspector","type":"address","indexed":false,"internalType":"address"}],"anonymous":false},{"type":"event","name":"OFTReceived","inputs":[{"name":"guid","type":"bytes32","indexed":true,"internalType":"bytes32"},{"name":"srcEid","type":"uint32","indexed":false,"internalType":"uint32"},{"name":"toAddress","type":"address","indexed":true,"internalType":"address"},{"name":"amountReceivedLD","type":"uint256","indexed":false,"internalType":"uint256"}],"anonymous":false},{"type":"event","name":"OFTSent","inputs":[{"name":"guid","type":"bytes32","indexed":true,"internalType":"bytes32"},{"name":"dstEid","type":"uint32","indexed":false,"internalType":"uint32"},{"name":"fromAddress","type":"address","indexed":true,"internalType":"address"},{"name":"amountSentLD","type":"uint256","indexed":false,"internalType":"uint256"},{"name":"amountReceivedLD","type":"uint256","indexed":false,"internalType":"uint256"}],"anonymous":false},{"type":"event","name":"OwnershipTransferred","inputs":[{"name":"previousOwner","type":"address","indexed":true,"internalType":"address"},{"name":"newOwner","type":"address","indexed":true,"internalType":"address"}],"anonymous":false},{"type":"event","name":"PeerSet","inputs":[{"name":"eid","type":"uint32","indexed":false,"internalType":"uint32"},{"name":"peer","type":"bytes32","indexed":false,"internalType":"bytes32"}],"anonymous":false},{"type":"event","name":"PreCrimeSet","inputs":[{"name":"preCrimeAddress","type":"address","indexed":false,"internalType":"address"}],"anonymous":false},{"type":"event","name":"Transfer","inputs":[{"name":"from","type":"address","indexed":true,"internalType":"address"},{"name":"to","type":"address","indexed":true,"internalType":"address"},{"name":"value","type":"uint256","indexed":false,"internalType":"uint256"}],"anonymous":false},{"type":"error","name":"ERC20InsufficientAllowance","inputs":[{"name":"spender","type":"address","internalType":"address"},{"name":"allowance","type":"uint256","internalType":"uint256"},{"name":"needed","type":"uint256","internalType":"uint256"}]},{"type":"error","name":"ERC20InsufficientBalance","inputs":[{"name":"sender","type":"address","internalType":"address"},{"name":"balance","type":"uint256","internalType":"uint256"},{"name":"needed","type":"uint256","internalType":"uint256"}]},{"type":"error","name":"ERC20InvalidApprover","inputs":[{"name":"approver","type":"address","internalType":"address"}]},{"type":"error","name":"ERC20InvalidReceiver","inputs":[{"name":"receiver","type":"address","internalType":"address"}]},{"type":"error","name":"ERC20InvalidSender","inputs":[{"name":"sender","type":"address","internalType":"address"}]},{"type":"error","name":"ERC20InvalidSpender","inputs":[{"name":"spender","type":"address","internalType":"address"}]},{"type":"error","name":"InvalidDelegate","inputs":[]},{"type":"error","name":"InvalidEndpointCall","inputs":[]},{"type":"error","name":"InvalidLocalDecimals","inputs":[]},{"type":"error","name":"InvalidOptions","inputs":[{"name":"options","type":"bytes","internalType":"bytes"}]},{"type":"error","name":"LzTokenUnavailable","inputs":[]},{"type":"error","name":"NoPeer","inputs":[{"name":"eid","type":"uint32","internalType":"uint32"}]},{"type":"error","name":"NotEnoughNative","inputs":[{"name":"msgValue","type":"uint256","internalType":"uint256"}]},{"type":"error","name":"OnlyEndpoint","inputs":[{"name":"addr","type":"address","internalType":"address"}]},{"type":"error","name":"OnlyPeer","inputs":[{"name":"eid","type":"uint32","internalType":"uint32"},{"name":"sender","type":"bytes32","internalType":"bytes32"}]},{"type":"error","name":"OnlySelf","inputs":[]},{"type":"error","name":"OwnableInvalidOwner","inputs":[{"name":"owner","type":"address","internalType":"address"}]},{"type":"error","name":"OwnableUnauthorizedAccount","inputs":[{"name":"account","type":"address","internalType":"address"}]},{"type":"error","name":"SafeERC20FailedOperation","inputs":[{"name":"token","type":"address","internalType":"address"}]},{"type":"error","name":"SimulationResult","inputs":[{"name":"result","type":"bytes","internalType":"bytes"}]},{"type":"error","name":"SlippageExceeded","inputs":[{"name":"amountLD","type":"uint256","internalType":"uint256"},{"name":"minAmountLD","type":"uint256","internalType":"uint256"}]}],"bytecode":{"object":"0x60c060405234801561001057600080fd5b5060405161371d38038061371d83398101604081905261002f916103bc565b604051806040016040528060088152602001675a45524f4241534560c01b815250604051806040016040528060028152602001612d2160f11b8152508383838361007d6101e260201b60201c565b8484818181818d6001600160a01b0381166100b357604051631e4fbdf760e01b8152600060048201526024015b60405180910390fd5b6100bc816101e7565b506001600160a01b0380831660805281166100ea57604051632d618d8160e21b815260040160405180910390fd5b60805160405163ca5eb5e160e01b81526001600160a01b0383811660048301529091169063ca5eb5e190602401600060405180830381600087803b15801561013157600080fd5b505af1158015610145573d6000803e3d6000fd5b505050505050505061015b61023760201b60201c565b60ff168360ff161015610181576040516301e9714b60e41b815260040160405180910390fd5b61018c600684610405565b61019790600a61050b565b60a05250600891506101ab905083826105c0565b5060096101b882826105c0565b505050505050506101db816b033b2e3c9fd0803ce800000061023c60201b60201c565b5050610691565b601290565b600080546001600160a01b038381166001600160a01b0319831681178455604051919092169283917f8be0079c531659141344cd1fd0a4f28419497f9722a3daafe3b4186f6b6457e09190a35050565b600690565b6001600160a01b0382166102665760405163ec442f0560e01b8152600060048201526024016100aa565b61027260008383610276565b5050565b6001600160a01b0383166102a1578060076000828254610296919061067e565b909155506103139050565b6001600160a01b038316600090815260056020526040902054818110156102f45760405163391434e360e21b81526001600160a01b038516600482015260248101829052604481018390526064016100aa565b6001600160a01b03841660009081526005602052604090209082900390555b6001600160a01b03821661032f5760078054829003905561034e565b6001600160a01b03821660009081526005602052604090208054820190555b816001600160a01b0316836001600160a01b03167fddf252ad1be2c89b69c2b068fc378daa952ba7f163c4a11628f55a4df523b3ef8360405161039391815260200190565b60405180910390a3505050565b80516001600160a01b03811681146103b757600080fd5b919050565b600080604083850312156103cf57600080fd5b6103d8836103a0565b91506103e6602084016103a0565b90509250929050565b634e487b7160e01b600052601160045260246000fd5b60ff828116828216039081111561041e5761041e6103ef565b92915050565b6001815b600184111561045f57808504811115610443576104436103ef565b600184161561045157908102905b60019390931c928002610428565b935093915050565b6000826104765750600161041e565b816104835750600061041e565b816001811461049957600281146104a3576104bf565b600191505061041e565b60ff8411156104b4576104b46103ef565b50506001821b61041e565b5060208310610133831016604e8410600b84101617156104e2575081810a61041e565b6104ef6000198484610424565b8060001904821115610503576105036103ef565b029392505050565b600061051a60ff841683610467565b9392505050565b634e487b7160e01b600052604160045260246000fd5b600181811c9082168061054b57607f821691505b60208210810361056b57634e487b7160e01b600052602260045260246000fd5b50919050565b601f8211156105bb57806000526020600020601f840160051c810160208510156105985750805b601f840160051c820191505b818110156105b857600081556001016105a4565b50505b505050565b81516001600160401b038111156105d9576105d9610521565b6105ed816105e78454610537565b84610571565b6020601f82116001811461062157600083156106095750848201515b600019600385901b1c1916600184901b1784556105b8565b600084815260208120601f198516915b828110156106515787850151825560209485019460019092019101610631565b508482101561066f5786840151600019600387901b60f8161c191681555b50505050600190811b01905550565b8082018082111561041e5761041e6103ef565b60805160a0516130216106fc6000396000818161064901528181611b1201528181611b870152611d8b015260008181610508015281816109b8015281816110cf0152818161134e015281816116ba0152818161196101528181611e8c0152611f4501526130216000f3fe60806040526004361061025c5760003560e01c8063715018a611610144578063bb0b6a53116100b6578063d045a0dc1161007a578063d045a0dc14610780578063d424388514610793578063dd62ed3e146107b3578063f2fde38b146107f9578063fc0c546a1461048c578063ff7bd03d1461081957600080fd5b8063bb0b6a53146106df578063bc70b3541461070c578063bd815db01461072c578063c7c7f5b31461073f578063ca5eb5e11461076057600080fd5b806395d89b411161010857806395d89b4114610622578063963efcaa146106375780639f68b9641461066b578063a9059cbb1461067f578063b731ea0a1461069f578063b98bd070146106bf57600080fd5b8063715018a6146105805780637d25a05e1461059557806382413eac146105d0578063857749b0146105f05780638da5cb5b1461060457600080fd5b806323b872dd116101dd57806352ae2879116101a157806352ae28791461048c5780635535d4611461049f5780635a0dfe4d146104bf5780635e280f11146104f65780636fc1b31e1461052a57806370a082311461054a57600080fd5b806323b872dd146103dd5780632ff2e9dc146103fd578063313ce5671461041d5780633400288b1461043f5780633b6f743b1461045f57600080fd5b8063134d4f2511610224578063134d4f2514610338578063156a0d0f1461036057806317442b701461038757806318160ddd146103a95780631f5e1334146103c857600080fd5b806306fdde0314610261578063095ea7b31461028c5780630d35b415146102bc578063111ecdad146102eb57806313137d6514610323575b600080fd5b34801561026d57600080fd5b50610276610839565b60405161028391906120fd565b60405180910390f35b34801561029857600080fd5b506102ac6102a7366004612125565b6108cb565b6040519015158152602001610283565b3480156102c857600080fd5b506102dc6102d7366004612169565b6108e5565b6040516102839392919061219d565b3480156102f757600080fd5b5060045461030b906001600160a01b031681565b6040516001600160a01b039091168152602001610283565b610336610331366004612294565b6109b6565b005b34801561034457600080fd5b5061034d600281565b60405161ffff9091168152602001610283565b34801561036c57600080fd5b506040805162b9270b60e21b81526001602082015201610283565b34801561039357600080fd5b5060408051600181526002602082015201610283565b3480156103b557600080fd5b506007545b604051908152602001610283565b3480156103d457600080fd5b5061034d600181565b3480156103e957600080fd5b506102ac6103f8366004612335565b610a76565b34801561040957600080fd5b506103ba6b033b2e3c9fd0803ce800000081565b34801561042957600080fd5b5060125b60405160ff9091168152602001610283565b34801561044b57600080fd5b5061033661045a36600461238f565b610a9c565b34801561046b57600080fd5b5061047f61047a3660046123b9565b610ab2565b604051610283919061240a565b34801561049857600080fd5b503061030b565b3480156104ab57600080fd5b506102766104ba366004612433565b610b19565b3480156104cb57600080fd5b506102ac6104da36600461238f565b63ffffffff919091166000908152600160205260409020541490565b34801561050257600080fd5b5061030b7f000000000000000000000000000000000000000000000000000000000000000081565b34801561053657600080fd5b50610336610545366004612466565b610bbe565b34801561055657600080fd5b506103ba610565366004612466565b6001600160a01b031660009081526005602052604090205490565b34801561058c57600080fd5b50610336610c1b565b3480156105a157600080fd5b506105b86105b036600461238f565b600092915050565b6040516001600160401b039091168152602001610283565b3480156105dc57600080fd5b506102ac6105eb366004612483565b610c2f565b3480156105fc57600080fd5b50600661042d565b34801561061057600080fd5b506000546001600160a01b031661030b565b34801561062e57600080fd5b50610276610c44565b34801561064357600080fd5b506103ba7f000000000000000000000000000000000000000000000000000000000000000081565b34801561067757600080fd5b5060006102ac565b34801561068b57600080fd5b506102ac61069a366004612125565b610c53565b3480156106ab57600080fd5b5060025461030b906001600160a01b031681565b3480156106cb57600080fd5b506103366106da36600461252d565b610c61565b3480156106eb57600080fd5b506103ba6106fa36600461256e565b60016020526000908152604090205481565b34801561071857600080fd5b50610276610727366004612589565b610c7b565b61033661073a36600461252d565b610e23565b61075261074d3660046125e9565b610fad565b604051610283929190612656565b34801561076c57600080fd5b5061033661077b366004612466565b6110a8565b61033661078e366004612294565b61112e565b34801561079f57600080fd5b506103366107ae366004612466565b61115d565b3480156107bf57600080fd5b506103ba6107ce3660046126a8565b6001600160a01b03918216600090815260066020908152604080832093909416825291909152205490565b34801561080557600080fd5b50610336610814366004612466565b6111b3565b34801561082557600080fd5b506102ac6108343660046126d6565b6111f1565b606060088054610848906126f2565b80601f0160208091040260200160405190810160405280929190818152602001828054610874906126f2565b80156108c15780601f10610896576101008083540402835291602001916108c1565b820191906000526020600020905b8154815290600101906020018083116108a457829003601f168201915b5050505050905090565b6000336108d9818585611227565b60019150505b92915050565b60408051808201909152600080825260208201526060610918604051806040016040528060008152602001600081525090565b60408051808201825260008082526001600160401b03602080840182905284518381529081019094529195509182610973565b60408051808201909152600081526060602082015281526020019060019003908161094b5790505b509350600080610998604089013560608a013561099360208c018c61256e565b611239565b60408051808201909152918252602082015296989597505050505050565b7f00000000000000000000000000000000000000000000000000000000000000006001600160a01b03163314610a06576040516391ac5e4f60e01b81523360048201526024015b60405180910390fd5b60208701803590610a2090610a1b908a61256e565b61127d565b14610a5e57610a32602088018861256e565b60405163309afaf360e21b815263ffffffff9091166004820152602088013560248201526044016109fd565b610a6d878787878787876112b9565b50505050505050565b600033610a84858285611420565b610a8f85858561149f565b60019150505b9392505050565b610aa46114fe565b610aae828261152b565b5050565b60408051808201909152600080825260208201526000610ae260408501356060860135610993602088018861256e565b915050600080610af28684611580565b9092509050610b0f610b07602088018861256e565b8383886116a4565b9695505050505050565b600360209081526000928352604080842090915290825290208054610b3d906126f2565b80601f0160208091040260200160405190810160405280929190818152602001828054610b69906126f2565b8015610bb65780601f10610b8b57610100808354040283529160200191610bb6565b820191906000526020600020905b815481529060010190602001808311610b9957829003601f168201915b505050505081565b610bc66114fe565b600480546001600160a01b0319166001600160a01b0383169081179091556040519081527ff0be4f1e87349231d80c36b33f9e8639658eeaf474014dee15a3e6a4d4414197906020015b60405180910390a150565b610c236114fe565b610c2d6000611785565b565b6001600160a01b03811630145b949350505050565b606060098054610848906126f2565b6000336108d981858561149f565b610c696114fe565b610aae610c7682846127dd565b6117d5565b63ffffffff8416600090815260036020908152604080832061ffff87168452909152812080546060929190610caf906126f2565b80601f0160208091040260200160405190810160405280929190818152602001828054610cdb906126f2565b8015610d285780601f10610cfd57610100808354040283529160200191610d28565b820191906000526020600020905b815481529060010190602001808311610d0b57829003601f168201915b505050505090508051600003610d785783838080601f016020809104026020016040519081016040528093929190818152602001838380828437600092019190915250929450610c3c9350505050565b6000839003610d88579050610c3c565b60028310610e0657610dcf84848080601f0160208091040260200160405190810160405280939291908181526020018383808284376000920191909152506118dc92505050565b80610ddd8460028188612906565b604051602001610def93929190612930565b604051602081830303815290604052915050610c3c565b8383604051639a6d49cd60e01b81526004016109fd929190612981565b60005b81811015610f2c5736838383818110610e4157610e41612995565b9050602002810190610e5391906129ab565b9050610e86610e65602083018361256e565b602083013563ffffffff919091166000908152600160205260409020541490565b610e905750610f24565b3063d045a0dc60c08301358360a0810135610eaf6101008301836129cc565b610ec0610100890160e08a01612466565b610ece6101208a018a6129cc565b6040518963ffffffff1660e01b8152600401610ef09796959493929190612a27565b6000604051808303818588803b158015610f0957600080fd5b505af1158015610f1d573d6000803e3d6000fd5b5050505050505b600101610e26565b50336001600160a01b0316638e9e70996040518163ffffffff1660e01b8152600401600060405180830381865afa158015610f6b573d6000803e3d6000fd5b505050506040513d6000823e601f3d908101601f19168201604052610f939190810190612aad565b604051638351eea760e01b81526004016109fd91906120fd565b610fb5612066565b6040805180820190915260008082526020820152600080610fec33604089013560608a0135610fe760208c018c61256e565b611908565b91509150600080610ffd8984611580565b909250905061102961101260208b018b61256e565b8383611023368d90038d018d612b1a565b8b61192e565b60408051808201909152858152602080820186905282519298509096503391907f85496b760a4b7f8d66384b9df21b381f5d1b1e79f229a47aaf4c232edc2fe59a90611077908d018d61256e565b6040805163ffffffff909216825260208201899052810187905260600160405180910390a350505050935093915050565b6110b06114fe565b60405163ca5eb5e160e01b81526001600160a01b0382811660048301527f0000000000000000000000000000000000000000000000000000000000000000169063ca5eb5e190602401600060405180830381600087803b15801561111357600080fd5b505af1158015611127573d6000803e3d6000fd5b5050505050565b33301461114e5760405163029a949d60e31b815260040160405180910390fd5b610a6d87878787878787610a5e565b6111656114fe565b600280546001600160a01b0319166001600160a01b0383169081179091556040519081527fd48d879cef83a1c0bdda516f27b13ddb1b3f8bbac1c9e1511bb2a659c242776090602001610c10565b6111bb6114fe565b6001600160a01b0381166111e557604051631e4fbdf760e01b8152600060048201526024016109fd565b6111ee81611785565b50565b6000602082018035906001908390611209908661256e565b63ffffffff1681526020810191909152604001600020541492915050565b6112348383836001611a39565b505050565b60008061124585611b0e565b915081905083811015611275576040516371c4efed60e01b815260048101829052602481018590526044016109fd565b935093915050565b63ffffffff8116600090815260016020526040812054806108df5760405163f6ff4fb760e01b815263ffffffff841660048201526024016109fd565b60006112cb6112c88787611b45565b90565b905060006112f7826112e56112e08a8a611b5d565b611b80565b6112f260208d018d61256e565b611bb5565b905060288611156113be57600061133461131760608c0160408d01612b4d565b61132460208d018d61256e565b8461132f8c8c611bdd565b611c28565b604051633e5ac80960e11b81529091506001600160a01b037f00000000000000000000000000000000000000000000000000000000000000001690637cb590129061138a9086908d906000908790600401612b6a565b600060405180830381600087803b1580156113a457600080fd5b505af11580156113b8573d6000803e3d6000fd5b50505050505b6001600160a01b038216887fefed6d3500546b29533b128a29e3a94d70788727f0507505ac12eaf2e578fd9c6113f760208d018d61256e565b6040805163ffffffff9092168252602082018690520160405180910390a3505050505050505050565b6001600160a01b03838116600090815260066020908152604080832093861683529290522054600019811015611499578181101561148a57604051637dc7a0d960e11b81526001600160a01b038416600482015260248101829052604481018390526064016109fd565b61149984848484036000611a39565b50505050565b6001600160a01b0383166114c957604051634b637e8f60e11b8152600060048201526024016109fd565b6001600160a01b0382166114f35760405163ec442f0560e01b8152600060048201526024016109fd565b611234838383611c5a565b6000546001600160a01b03163314610c2d5760405163118cdaa760e01b81523360048201526024016109fd565b63ffffffff8216600081815260016020908152604091829020849055815192835282018390527f238399d427b947898edb290f5ff0f9109849b1c3ba196a42e35f00c50a54b98b910160405180910390a15050565b60608060006115dd856020013561159686611d84565b6115a360a08901896129cc565b8080601f016020809104026020016040519081016040528093929190818152602001838380828437600092019190915250611db092505050565b90935090506000816115f05760016115f3565b60025b9050611613611605602088018861256e565b8261072760808a018a6129cc565b6004549093506001600160a01b03161561169b576004805460405163043a78eb60e01b81526001600160a01b039091169163043a78eb91611658918891889101612b9b565b602060405180830381865afa158015611675573d6000803e3d6000fd5b505050506040513d601f19601f820116820180604052508101906116999190612bc0565b505b50509250929050565b60408051808201909152600080825260208201527f00000000000000000000000000000000000000000000000000000000000000006001600160a01b031663ddc28c586040518060a001604052808863ffffffff1681526020016117078961127d565b8152602001878152602001868152602001851515815250306040518363ffffffff1660e01b815260040161173c929190612bdd565b6040805180830381865afa158015611758573d6000803e3d6000fd5b505050506040513d601f19601f8201168201806040525081019061177c9190612c87565b95945050505050565b600080546001600160a01b038381166001600160a01b0319831681178455604051919092169283917f8be0079c531659141344cd1fd0a4f28419497f9722a3daafe3b4186f6b6457e09190a35050565b60005b81518110156118ac576118078282815181106117f6576117f6612995565b6020026020010151604001516118dc565b81818151811061181957611819612995565b6020026020010151604001516003600084848151811061183b5761183b612995565b60200260200101516000015163ffffffff1663ffffffff168152602001908152602001600020600084848151811061187557611875612995565b60200260200101516020015161ffff1661ffff16815260200190815260200160002090816118a39190612cea565b506001016117d8565b507fbe4864a8e820971c0247f5992e2da559595f7bf076a21cb5928d443d2a13b67481604051610c109190612da8565b600281015161ffff8116600314610aae5781604051639a6d49cd60e01b81526004016109fd91906120fd565b600080611916858585611239565b90925090506119258683611e2a565b94509492505050565b611936612066565b60006119458460000151611e60565b60208501519091501561195f5761195f8460200151611e88565b7f00000000000000000000000000000000000000000000000000000000000000006001600160a01b0316632637a450826040518060a001604052808b63ffffffff1681526020016119af8c61127d565b81526020018a815260200189815260200160008960200151111515815250866040518463ffffffff1660e01b81526004016119eb929190612bdd565b60806040518083038185885af1158015611a09573d6000803e3d6000fd5b50505050506040513d601f19601f82011682018060405250810190611a2e9190612e38565b979650505050505050565b6001600160a01b038416611a635760405163e602df0560e01b8152600060048201526024016109fd565b6001600160a01b038316611a8d57604051634a1406b160e11b8152600060048201526024016109fd565b6001600160a01b038085166000908152600660209081526040808320938716835292905220829055801561149957826001600160a01b0316846001600160a01b03167f8c5be1e5ebec7d5bd14f71427d1e84f3dd0314c0f7b2291e5b200ac8c7c3b92584604051611b0091815260200190565b60405180910390a350505050565b60007f0000000000000000000000000000000000000000000000000000000000000000611b3b8184612e9a565b6108df9190612ebc565b6000611b546020828486612906565b610a9591612ed3565b6000611b6d602860208486612906565b611b7691612ef1565b60c01c9392505050565b60006108df7f00000000000000000000000000000000000000000000000000000000000000006001600160401b038416612ebc565b60006001600160a01b038416611bcb5761dead93505b611bd58484611f6a565b509092915050565b6060611bec8260288186612906565b8080601f016020809104026020016040519081016040528093929190818152602001838380828437600092019190915250929695505050505050565b606084848484604051602001611c419493929190612f29565b6040516020818303038152906040529050949350505050565b6001600160a01b038316611c85578060076000828254611c7a9190612f78565b90915550611cf79050565b6001600160a01b03831660009081526005602052604090205481811015611cd85760405163391434e360e21b81526001600160a01b038516600482015260248101829052604481018390526064016109fd565b6001600160a01b03841660009081526005602052604090209082900390555b6001600160a01b038216611d1357600780548290039055611d32565b6001600160a01b03821660009081526005602052604090208054820190555b816001600160a01b0316836001600160a01b03167fddf252ad1be2c89b69c2b068fc378daa952ba7f163c4a11628f55a4df523b3ef83604051611d7791815260200190565b60405180910390a3505050565b60006108df7f000000000000000000000000000000000000000000000000000000000000000083612e9a565b8051606090151580611df9578484604051602001611de592919091825260c01b6001600160c01b031916602082015260280190565b604051602081830303815290604052611e20565b84843385604051602001611e109493929190612f8b565b6040516020818303038152906040525b9150935093915050565b6001600160a01b038216611e5457604051634b637e8f60e11b8152600060048201526024016109fd565b610aae82600083611c5a565b6000813414611e84576040516304fb820960e51b81523460048201526024016109fd565b5090565b60007f00000000000000000000000000000000000000000000000000000000000000006001600160a01b031663e4fe1d946040518163ffffffff1660e01b8152600401602060405180830381865afa158015611ee8573d6000803e3d6000fd5b505050506040513d601f19601f82011682018060405250810190611f0c9190612fce565b90506001600160a01b038116611f35576040516329b99a9560e11b815260040160405180910390fd5b610aae6001600160a01b038216337f000000000000000000000000000000000000000000000000000000000000000085611fa0565b6001600160a01b038216611f945760405163ec442f0560e01b8152600060048201526024016109fd565b610aae60008383611c5a565b604080516001600160a01b038581166024830152841660448201526064808201849052825180830390910181526084909101909152602080820180516001600160e01b03166323b872dd60e01b1781528251611499938893909260009283929183919082885af180612018576040513d6000823e3d81fd5b50506000513d9150811561203057806001141561203d565b6001600160a01b0384163b155b1561149957604051635274afe760e01b81526001600160a01b03851660048201526024016109fd565b60405180606001604052806000801916815260200160006001600160401b031681526020016120a8604051806040016040528060008152602001600081525090565b905290565b60005b838110156120c85781810151838201526020016120b0565b50506000910152565b600081518084526120e98160208601602086016120ad565b601f01601f19169290920160200192915050565b602081526000610a9560208301846120d1565b6001600160a01b03811681146111ee57600080fd5b6000806040838503121561213857600080fd5b823561214381612110565b946020939093013593505050565b600060e0828403121561216357600080fd5b50919050565b60006020828403121561217b57600080fd5b81356001600160401b0381111561219157600080fd5b610c3c84828501612151565b8351815260208085015190820152600060a0820160a0604084015280855180835260c08501915060c08160051b86010192506020870160005b8281101561221e5760bf19878603018452815180518652602081015190506040602087015261220860408701826120d1565b95505060209384019391909101906001016121d6565b5050855160608601525050602084015160808401529050610c3c565b60006060828403121561216357600080fd5b60008083601f84011261225e57600080fd5b5081356001600160401b0381111561227557600080fd5b60208301915083602082850101111561228d57600080fd5b9250929050565b600080600080600080600060e0888a0312156122af57600080fd5b6122b9898961223a565b96506060880135955060808801356001600160401b038111156122db57600080fd5b6122e78a828b0161224c565b90965094505060a08801356122fb81612110565b925060c08801356001600160401b0381111561231657600080fd5b6123228a828b0161224c565b989b979a50959850939692959293505050565b60008060006060848603121561234a57600080fd5b833561235581612110565b9250602084013561236581612110565b929592945050506040919091013590565b803563ffffffff8116811461238a57600080fd5b919050565b600080604083850312156123a257600080fd5b61214383612376565b80151581146111ee57600080fd5b600080604083850312156123cc57600080fd5b82356001600160401b038111156123e257600080fd5b6123ee85828601612151565b92505060208301356123ff816123ab565b809150509250929050565b8151815260208083015190820152604081016108df565b803561ffff8116811461238a57600080fd5b6000806040838503121561244657600080fd5b61244f83612376565b915061245d60208401612421565b90509250929050565b60006020828403121561247857600080fd5b8135610a9581612110565b60008060008060a0858703121561249957600080fd5b6124a3868661223a565b935060608501356001600160401b038111156124be57600080fd5b6124ca8782880161224c565b90945092505060808501356124de81612110565b939692955090935050565b60008083601f8401126124fb57600080fd5b5081356001600160401b0381111561251257600080fd5b6020830191508360208260051b850101111561228d57600080fd5b6000806020838503121561254057600080fd5b82356001600160401b0381111561255657600080fd5b612562858286016124e9565b90969095509350505050565b60006020828403121561258057600080fd5b610a9582612376565b6000806000806060858703121561259f57600080fd5b6125a885612376565b93506125b660208601612421565b925060408501356001600160401b038111156125d157600080fd5b6125dd8782880161224c565b95989497509550505050565b600080600083850360808112156125ff57600080fd5b84356001600160401b0381111561261557600080fd5b61262187828801612151565b9450506040601f198201121561263657600080fd5b50602084019150606084013561264b81612110565b809150509250925092565b600060c082019050835182526001600160401b0360208501511660208301526040840151612691604084018280518252602090810151910152565b5082516080830152602083015160a0830152610a95565b600080604083850312156126bb57600080fd5b82356126c681612110565b915060208301356123ff81612110565b6000606082840312156126e857600080fd5b610a95838361223a565b600181811c9082168061270657607f821691505b60208210810361216357634e487b7160e01b600052602260045260246000fd5b634e487b7160e01b600052604160045260246000fd5b604051606081016001600160401b038111828210171561275e5761275e612726565b60405290565b604080519081016001600160401b038111828210171561275e5761275e612726565b604051601f8201601f191681016001600160401b03811182821017156127ae576127ae612726565b604052919050565b60006001600160401b038211156127cf576127cf612726565b50601f01601f191660200190565b60006001600160401b038311156127f6576127f6612726565b8260051b61280660208201612786565b8481529083019060208101903683111561281f57600080fd5b845b838110156128fc5780356001600160401b0381111561283f57600080fd5b8601606036829003121561285257600080fd5b61285a61273c565b61286382612376565b815261287160208301612421565b602082015260408201356001600160401b0381111561288f57600080fd5b919091019036601f8301126128a357600080fd5b81356128b66128b1826127b6565b612786565b8181523660208386010111156128cb57600080fd5b8160208501602083013760006020838301015280604084015250508085525050602083019250602081019050612821565b5095945050505050565b6000808585111561291657600080fd5b8386111561292357600080fd5b5050820193919092039150565b600084516129428184602089016120ad565b8201838582376000930192835250909392505050565b81835281816020850137506000828201602090810191909152601f909101601f19169091010190565b602081526000610c3c602083018486612958565b634e487b7160e01b600052603260045260246000fd5b6000823561013e198336030181126129c257600080fd5b9190910192915050565b6000808335601e198436030181126129e357600080fd5b8301803591506001600160401b038211156129fd57600080fd5b60200191503681900382131561228d57600080fd5b6001600160401b03811681146111ee57600080fd5b63ffffffff612a3589612376565b1681526020888101359082015260006040890135612a5281612a12565b6001600160401b03811660408401525087606083015260e06080830152612a7d60e083018789612958565b6001600160a01b03861660a084015282810360c0840152612a9f818587612958565b9a9950505050505050505050565b600060208284031215612abf57600080fd5b81516001600160401b03811115612ad557600080fd5b8201601f81018413612ae657600080fd5b8051612af46128b1826127b6565b818152856020838501011115612b0957600080fd5b61177c8260208301602086016120ad565b60006040828403128015612b2d57600080fd5b50612b36612764565b823581526020928301359281019290925250919050565b600060208284031215612b5f57600080fd5b8135610a9581612a12565b60018060a01b038516815283602082015261ffff83166040820152608060608201526000610b0f60808301846120d1565b604081526000612bae60408301856120d1565b828103602084015261177c81856120d1565b600060208284031215612bd257600080fd5b8151610a95816123ab565b6040815263ffffffff8351166040820152602083015160608201526000604084015160a06080840152612c1360e08401826120d1565b90506060850151603f198483030160a0850152612c3082826120d1565b60809690960151151560c08501525050506001600160a01b039190911660209091015290565b600060408284031215612c6857600080fd5b612c70612764565b825181526020928301519281019290925250919050565b600060408284031215612c9957600080fd5b610a958383612c56565b601f82111561123457806000526020600020601f840160051c81016020851015612cca5750805b601f840160051c820191505b818110156111275760008155600101612cd6565b81516001600160401b03811115612d0357612d03612726565b612d1781612d1184546126f2565b84612ca3565b6020601f821160018114612d4b5760008315612d335750848201515b600019600385901b1c1916600184901b178455611127565b600084815260208120601f198516915b82811015612d7b5787850151825560209485019460019092019101612d5b565b5084821015612d995786840151600019600387901b60f8161c191681555b50505050600190811b01905550565b6000602082016020835280845180835260408501915060408160051b86010192506020860160005b82811015612e2c57603f19878603018452815163ffffffff815116865261ffff60208201511660208701526040810151905060606040870152612e1660608701826120d1565b9550506020938401939190910190600101612dd0565b50929695505050505050565b60006080828403128015612e4b57600080fd5b50612e5461273c565b825181526020830151612e6681612a12565b6020820152612e788460408501612c56565b60408201529392505050565b634e487b7160e01b600052601160045260246000fd5b600082612eb757634e487b7160e01b600052601260045260246000fd5b500490565b80820281158282048414176108df576108df612e84565b803560208310156108df57600019602084900360031b1b1692915050565b80356001600160c01b03198116906008841015612f22576001600160c01b0319600885900360031b81901b82161691505b5092915050565b6001600160401b0360c01b8560c01b16815263ffffffff60e01b8460e01b16600882015282600c82015260008251612f6881602c8501602087016120ad565b91909101602c0195945050505050565b808201808211156108df576108df612e84565b8481526001600160401b0360c01b8460c01b16602082015282602882015260008251612fbe8160488501602087016120ad565b9190910160480195945050505050565b600060208284031215612fe057600080fd5b8151610a958161211056fea2646970667358221220650a46b69d8b941825d81df5d86781d82a488370132a5c4ed107b13ed655623564736f6c634300081c0033","linkReferences":{}},"methodIdentifiers":{"INITIAL_SUPPLY()":"2ff2e9dc","SEND()":"1f5e1334","SEND_AND_CALL()":"134d4f25","allowInitializePath((uint32,bytes32,uint64))":"ff7bd03d","allowance(address,address)":"dd62ed3e","approvalRequired()":"9f68b964","approve(address,uint256)":"095ea7b3","balanceOf(address)":"70a08231","combineOptions(uint32,uint16,bytes)":"bc70b354","decimalConversionRate()":"963efcaa","decimals()":"313ce567","endpoint()":"5e280f11","enforcedOptions(uint32,uint16)":"5535d461","isComposeMsgSender((uint32,bytes32,uint64),bytes,address)":"82413eac","isPeer(uint32,bytes32)":"5a0dfe4d","lzReceive((uint32,bytes32,uint64),bytes32,bytes,address,bytes)":"13137d65","lzReceiveAndRevert(((uint32,bytes32,uint64),uint32,address,bytes32,uint256,address,bytes,bytes)[])":"bd815db0","lzReceiveSimulate((uint32,bytes32,uint64),bytes32,bytes,address,bytes)":"d045a0dc","msgInspector()":"111ecdad","name()":"06fdde03","nextNonce(uint32,bytes32)":"7d25a05e","oApp()":"52ae2879","oAppVersion()":"17442b70","oftVersion()":"156a0d0f","owner()":"8da5cb5b","peers(uint32)":"bb0b6a53","preCrime()":"b731ea0a","quoteOFT((uint32,bytes32,uint256,uint256,bytes,bytes,bytes))":"0d35b415","quoteSend((uint32,bytes32,uint256,uint256,bytes,bytes,bytes),bool)":"3b6f743b","renounceOwnership()":"715018a6","send((uint32,bytes32,uint256,uint256,bytes,bytes,bytes),(uint256,uint256),address)":"c7c7f5b3","setDelegate(address)":"ca5eb5e1","setEnforcedOptions((uint32,uint16,bytes)[])":"b98bd070","setMsgInspector(address)":"6fc1b31e","setPeer(uint32,bytes32)":"3400288b","setPreCrime(address)":"d4243885","sharedDecimals()":"857749b0","symbol()":"95d89b41","token()":"fc0c546a","totalSupply()":"18160ddd","transfer(address,uint256)":"a9059cbb","transferFrom(address,address,uint256)":"23b872dd","transferOwnership(address)":"f2fde38b"},"id":40}